S00C0000613274732E737265639E
S11300000C9460000C947D000C947D000C947D0095
S11300100C947D000C947D000C947D000C947D0068
S11300200C947D000C947D000C947D000C947D0058
S11300300C94CE0A0C947D000C947D000C947D00ED
S11300400C947D000C947D000C947D000C946A0C3F
S11300500C94930C0C947D000C947D000C947D0006
S11300600C94440B0C947D000C947D000C947D0046
S11300700C947D000C947D000C947D000C947D0008
S11300800C947D000C947D000C94F80A0C947D0073
S11300900C947D000C947D000C947D000C947D00E8
S11300A00C947D000C947D000C947D000C947D00D8
S11300B01A0723072C0735073E07440757076D0720
S11300C011241FBECFEFCDBFDFE7DEBF19E7A0E0ED
S11300D0B0E7E8E9FEE102C005900D92AC31B1074A
S11300E0D9F72AE7ACE1B9E701C01D92A83AB207F3
S11300F0E1F70E941E0B0C944A0F0C9400004F92DF
S11301005F926F927F928F929F92AF92BF92CF92A3
S1130110DF92EF92FF92CF93DF93E0E0F0E78481E8
S1130120C281D38196E1899FC00DD11D11240E9403
S11301303A0BBC0198819923E1F0933008F08AC00E
S113014080E090E00E94110E2FE632E143E059E393
S11301500E94C80E2D813E814F8158850E94FF0C5C
S113016029853A854B855C850E94C80E2B013C018C
S11301702DC0E0E0F1E126813781A481B581809131
S11301801006909111069695879596958795281B4C
S1130190390B0E943B0FDC01CB01985FAF4FBF4F7F
S11301A0072E7CE0B695A795979587957A95D1F714
S11301B0702DBC0180E090E00E94110E23E333E92E
S11301C048E853E40E94FE0C2B013C01CD84DE84FC
S11301D0EF84F888A701960160E070E080E89FE36F
S11301E00E94FE0C29813A814B815C810E94C80ED9
S11301F04B015C01A7019601C301B2010E94C80E24
S11302009B01AC01C501B4010E94FF0C69837A8390
S11302108B839C83809104708F5F833018F4809368
S1130220047002C010920470E0E0F0E78481028060
S1130230F381E02D96E1899FE00DF11D112485895C
S11302400E94310BE989FA89309721F06B897C8906
S1130250CE010995DF91CF91FF90EF90DF90CF9081
S1130260BF90AF909F908F907F906F905F904F90D2
S113027008958FE790E00E943F0BE0E0F0E785E00F
S113028090E780839183148281E08093A0000280B0
S1130290F381E02D85890E94310B80E090E0089580
S11302A0009729F0FC01618B728B438B548B08956A
S11302B085E090E70895FB01EE5AFF4F908192305C
S11302C019F128F4992341F0913071F00895933095
S11302D051F19430C1F10895813009F042C0FB011D
S11302E0EE5AFF4F80830895811106C0FB01EE5A38
S11302F0FF4F83E080830895853099F5FB01EE5A22
S1130300FF4F82E080830895811106C0FB01EE5AFD
S1130310FF4F84E080830895813019F5FB01EE5A84
S1130320FF4F80830895811106C0FB01EE5AFF4FF1
S113033081E0808308958530A1F4FB01EE5AFF4FDC
S113034082E080830895811106C0FB01EE5AFF4FBD
S113035082E080830895813021F4FB01EE5AFF4F3F
S113036080830895F901E359F74F81E0682760839A
S11303700895F901E259F74F60830895FC018181E2
S11303809281A381B481FB01E45AF74F8083918366
S1130390A283B3830895CF93DF93FC01218132813B
S11303A043815481FB01E05AF74F20833183428318
S11303B05383EB01C859D74F349660817181828190
S11303C093810E94C80E688379838A839B83DF911B
S11303D0CF910895CF93DF93FC0121813281438132
S11303E05481FB01EC59F74F2083318342835383BB
S11303F0EB01C859D74F3497608171818281938111
S11304000E94C80E688379838A839B83DF91CF918E
S113041008958F929F92AF92BF92CF92DF92EF9204
S1130420FF920F931F93CF93DF934B01E801883220
S113043079F0893209F479C0863109F07BC026E16C
S113044030E040E050E0B80187E10E94A80672C0A5
S1130450FB0180818F3F41F1823061F0833099F05C
S11304608130D1F4418161E0C801815B9F4F0E94DA
S11304702A091AC0FB01418162E0C801815B9F4FD8
S11304800E942A0911C0FB01418163E0C801815B1C
S11304909F4F0E942A0908C0FB01418160E0C80106
S11304A0815B9F4F0E942A09F40182818F3FE1F012
S11304B090E09C01220F331F880F991F880F991F0A
S11304C0880F991F280F391F032E000C440B550B5E
S11304D0A12CB12C6501E12CF12C8701E39460E09F
S11304E0CE01C2960E946D08F40183818F3F11F101
S11304F090E09C01220F331F880F991F880F991FCA
S1130500880F991F280F391F032E000C440B550B1D
S1130510A12CB12C6501E12CF12C8701E39460E05E
S1130520CE01C2960E946D0805C0FB018081CE5A9F
S1130530DF4F8883DF91CF911F910F91FF90EF9050
S1130540DF90CF90BF90AF909F908F9008950F93BE
S11305501F93CF93DF9381E0462F482789010459E5
S1130560174FF8014083E901E29660E0CE010E9452
S11305709B0841E0F8018081811101C040E061E005
S1130580CE010E949B08DF91CF911F910F91089596
S1130590CF93DF93EC01FC01E159F74FDC01AE5A34
S11305A0BF4F8C918083CE01885A9B4F0E9456097D
S11305B0FE01E059F74F8083CE018C5A9F4F0E9471
S11305C05609FE01EF58F74F8083BE01645A774FF6
S11305D026E130E040E050E084E10E94A806DF918B
S11305E0CF910895CF92DF92EF92FF921F93CF9312
S11305F0DF93FC01ED5AFF4F2081222309F444C00C
S1130600EC01E35FF74FC080D180E280F38020E00B
S113061030E0A901C701B6010E94C30E882364F02B
S113062020E030E040EA51E4C701B6010E94C80E60
S11306300E94E20D162F01C010E0612FCE018C5AEA
S11306409F4F0E946509FE01E05AF74FC080D18098
S1130650E280F38020E030E0A901C701B6010E94E6
S1130660C30E88235CF020E030E04AE253E4C70183
S1130670B6010E94C80E0E94E20D162F612FCE0112
S1130680885A9B4F0E946509DF91CF911F91FF907B
S1130690EF90DF90CF900895FC0184819581A6812D
S11306A0B7810196A11DB11D84839583A683B78369
S11306B0408151816281738184179507A607B7072A
S11306C030F0148215821682178281E080870895A3
S11306D0DC0118968C911897882371F018961C9257
S11306E018971996ED91FC911A97309729F01B965B
S11306F08D919C911C97099508958F929F92AF922A
S1130700BF92CF92DF92EF92FF920F931F93CF93FA
S1130710DF93EC01FC01E359F74F8081882309F151
S1130720E296A12CB12C65011FE5E12EF12C00E02D
S113073010E025E030E040E050E060E0CE010E94AF
S11307406D080F2EF2E3AF2EB12CC12CD12CF02D5D
S113075025E030E040E050E061E0CE010E946D0809
S113076086C0FE01EE5AFF4F8081823099F118F461
S1130770813029F068C0863008F450C064C04E014E
S113078082E3880E911CA12CB12C650119E1E12EA4
S1130790F12C00E010E029E130E040E050E060E0BE
S11307A0C4010E946D080F2EF2E3AF2EB12CC12CB0
S11307B0D12CF02D29E130E040E050E061E0C401AB
S11307C00E946D0841E061E0CE01815B9F4F0E9471
S11307D02A094DC04E0182E3880E911CA12CB12C34
S11307E065011FE5E12EF12C00E010E025E030E08A
S11307F040E050E060E0C4010E946D0825E030E074
S113080040E050E061E0C4010E946D0841E062E014
S1130810CE01815B9F4F0E942A0929C08E010E5C84
S11308201F4F41E060E0C8010E949B0841E061E085
S1130830C8010E949B0841E063E0CE01815B9F4FA9
S11308400E942A0914C08E010E5C1F4F40E060E034
S1130850C8010E949B0840E061E0C8010E949B0817
S113086041E060E0CE01815B9F4F0E942A09DF9145
S1130870CF911F910F91FF90EF90DF90CF90BF9099
S1130880AF909F908F900895CF93DF93EA0166B362
S113089065FB662760F9CA014B960E948105CE016B
S11308A00E947D03CE01C2960E94CD08CE018E58CF
S11308B0974F0E944C03DF91CF91089589EB98E7FD
S11308C00E94680386EC98E70E946803F7CF6DE402
S11308D070E789E490E70E947A0961E089E790E78C
S11308E00E94B80886E990E70E94460967E470E729
S11308F089E092E00E94990620E030E0A90160E0DE
S113090070E080E00E94A80627E430E744E454E065
S11309106AE070E080E090E00E94DD0947E450E77F
S113092067EA72E080E00E94520847E450E762EB15
S113093071E082E00E94520847E450E769EB71E0FD
S113094081E00E94520860E082E690E70E9444053C
S113095062E370E080E090E00E943D0A82E690E766
S11309600E94750560E273E080E090E00E943D0A19
S113097082E690E70E94790560ED77E080E090E000
S11309800E943D0A82E690E70E947D0547E450E715
S11309906BE571E082E690E70E946F050E943901E1
S11309A00E945801EC0147E450E76EEB71E00E94AD
S11309B0500147E450E76BEC71E0CE0146960E948B
S11309C0500147E450E76AEE71E0CE018C960E9434
S11309D050016AEF70E080E090E00E943D0AC7E4B5
S11309E0D0E728EC32E02093C2783093C378C093E8
S11309F0C478D093C5781092C1781092BD781092C3
S1130A00BE781092BF781092C0786093B9787093D2
S1130A10BA788093BB789093BC7868E270E080E009
S1130A2090E00E943D0A22EF32E02093CF78309389
S1130A30D078C093D178D093D2781092CE78109297
S1130A40CA781092CB781092CC781092CD786093BB
S1130A50C6787093C7788093C8789093C97886B322
S1130A608295817091E089278093B47886B383FB63
S1130A70882780F98093B57886B385FB882780F929
S1130A808093B3780E945E04FC011586168610825A
S1130A901182118612861386148681E090E0858B7C
S1130AA0968B82E390E08283938380E991E0848350
S1130AB0958380E293E0868397831786108A118A50
S1130AC0128A138A148A60870895FC011586168693
S1130AD0138A148A1786108A118A128A0895FC01CF
S1130AE061877287438754870895FC016283738307
S1130AF00895FC01648375830895FC0166837783FC
S1130B000895CF92DF92EF92FF920F931F93CF93AA
S1130B10DF93FC01408580819181019680839183DC
S1130B20A0E0B0E007851089218932896C017D013C
S1130B30C01AD10AE20AF30A2585223009F44FC00B
S1130B40EF01233028F4222369F02130B9F0E6C004
S1130B50263009F4A9C0273009F4BBC0233009F0BA
S1130B60DDC061C04613DCC0168621E02587878777
S1130B70908BA18BB28B138A148AD2C04617B9F01A
S1130B804281538160E070E0C416D506E606F7069C
S1130B9028F4868591E096878587C2C021E0268760
S1130BA022E025878787908BA18BB28BB9C0868181
S1130BB09781A0E0B0E08C159D05AE05BF0508F057
S1130BC0AFC00184F285E02D309721F06B857C85E0
S1130BD083E009958D858E8786E08D87A1C04613B5
S1130BE00EC082819381A0E0B0E0C816D906EA065F
S1130BF0FB0678F4868592E09687858791C082818A
S1130C009381A0E0B0E0C816D906EA06FB0608F412
S1130C1087C0838994890196838B948B82E086872D
S1130C2083E085877DC0461309C023E0268721E041
S1130C3025878787908BA18BB28B72C08481958125
S1130C40A0E0B0E08C159D05AE05BF0540F02389FA
S1130C503489858996892817390709F061C08B89F9
S1130C609C898130910549F4E985FA853097C1F072
S1130C706B857C8580E0099513C0029749F4E9856A
S1130C80FA85309769F06B857C8581E0099508C009
S1130C90E985FA85309721F06B857C8582E009959A
S1130CA0CE010E9465053CC0461749F026E0268720
S1130CB027E025878787908BA18BB28B31C0018475
S1130CC0F285E02D309761F16B857C8585E009958F
S1130CD027C046130EC082819381A0E0B0E0C816FD
S1130CE0D906EA06FB0670F4868597E09687858721
S1130CF017C082819381A0E0B0E0C816D906EA0645
S1130D00FB0670F0E985FA85309721F06B857C85C8
S1130D1084E00995CE010E94650502C02E871D86D8
S1130D20DF91CF911F910F91FF90EF90DF90CF90C3
S1130D300895ECE1F9E7808391836283738361E032
S1130D4087E097E00E945B0C81E0809389790895A5
S1130D504F925F926F927F92AF92BF92CF92DF9247
S1130D60EF92FF921F93CF93DF93CDB7DEB7269711
S1130D70CDBFDEBF5B0129013A014EED5DEA6EEBAA
S1130D807FEE49835A836B837C838D834E82CE01AD
S1130D9001967C016E0197E0C90ED11C10E0F701A9
S1130DA081917F01180F0E94BC0CCE14DF04B9F7A7
S1130DB01414150464F475014A0C5B1CF701819149
S1130DC07F01180F0E94BC0C4E145F04B9F7812FE9
S1130DD00E94BC0C2696CDBFDEBFDF91CF911F9140
S1130DE0FF90EF90DF90CF90BF90AF907F906F9087
S1130DF05F904F90089580912479811107C020E07D
S1130E0030E0A90160E070E00E94A80608950F9305
S1130E101F93CF930E94FB0CC82FE09188798E2FEB
S1130E2090E08830910508F077C0FC01E85AFF4F44
S1130E300C94350FCE3D21F481E08093887973C002
S1130E40109288796DC0CD3A21F482E0809388793C
S1130E506AC01092887964C0CE3B21F483E0809309
S1130E60887961C0109288795BC0CF3E21F484E018
S1130E708093887958C01092887952C0C09324799D
S1130E8085E0809388794FC0C13618F01092887934
S1130E9047C0C093257910928679C11104C087E0B8
S1130EA08093887940C086E0809388793CC04091E3
S1130EB08679242F30E08091257990E001972817D6
S1130EC039071CF087E0809388794F5F40938679D7
S1130ED0F901E45EF648C2871FC0109288798091B8
S1130EE08779C8131DC080912479833118F40E9436
S1130EF0FB0612C0E0911C79F0911D79309781F0C6
S1130F0000911E7910911F792091867930E040E09C
S1130F1050E066E279E7099580918879811103C0F0
S1130F201092877905C0E7E8F9E78081C80FC0838C
S1130F30CF911F910F910895CF92DF92EF92FF927C
S1130F40CF930E94680A6B017C018091D578882335
S1130F50A1F1E3EDF8E79181C6B3C5FBCC27C0F955
S1130F60C782D086E186F286833019F49C1314C0BC
S1130F7022C0813041F42C2F30E0892F90E0821779
S1130F80930754F018C08230B1F42C2F30E0892F2D
S1130F9090E0281739077CF4E091D678F091D7785F
S1130FA0309749F02091D8783091D97840E06C2F6F
S1130FB083ED98E70995C093D4788091E0788823ED
S1130FC0A1F1E3EDF8E79485C6B3C3FBCC27C0F9E0
S1130FD0C28AD38AE48AF58A833019F49C1314C034
S1130FE022C0813041F42C2F30E0892F90E0821709
S1130FF0930754F018C08230B1F42C2F30E0892FBD
S113100090E0281739077CF4E091E178F091E278D8
S1131010309749F02091E3783091E47840E06C2FE8
S11310208EED98E70995C093DF788091EB7888235B
S113103099F1E3EDF8E79789C6B3C295C170C58EFF
S1131040D68EE78EF0A2833019F49C1314C022C00C
S1131050813041F42C2F30E0892F90E082179307E0
S113106054F018C08230B1F42C2F30E0892F90E076
S1131070281739077CF4E091EC78F091ED783097FB
S113108049F02091EE783091EF7840E06C2F89EEB2
S113109098E70995C093EA78CF91FF90EF90DF909D
S11310A0CF900895813059F018F0823079F0089586
S11310B0E3EDF8E763837483458356830895E3ED92
S11310C0F8E766877787408B518B0895E3EDF8E75F
S11310D0618F728F438F548F0895CF92DF92EF9276
S11310E0FF920F931F93611102C0FC0102C0FC0127
S11310F03C9667017801C20ED31EE41EF51E80855E
S11311009185A285B385C816D906EA06FB0620F4A4
S1131110108611861286138620833183428353837B
S1131120C482D582E682F7821F910F91FF90EF90DF
S1131130DF90CF900895AF92BF92CF92DF92EF925B
S1131140FF920F931F93242F30E040E050E0A12C36
S1131150B12C6501E12CF12C87010E946D081F91CF
S11311600F91FF90EF90DF90CF90BF90AF900895D4
S1131170CF93DF93EC01659A40E060E00E949B0806
S1131180669A40E061E0CE010E949B0881E08C8F6A
S113119080E090E0DF91CF910895FC01808D918DE6
S11311A0A28DB38D0196A11DB11D808F918FA28F49
S11311B0B38F80859185A285B3850196A11DB11D4C
S11311C080879187A287B38744815581668177811F
S11311D084179507A607B70720F010861186128694
S11311E0138684899589A689B7890196A11DB11DA5
S11311F0848B958BA68BB78B4089518962897389BF
S113120084179507A607B70720F0148A158A168A4B
S1131210178A408551856285738580819181A28179
S1131220B381481759076A077B0710F46D9A01C008
S11312306D98448955896689778984859585A685BD
S1131240B785481759076A077B0710F46E9A089503
S11312506E980895FC0182818823B9F060834183EC
S1131260623041F0633051F0613061F4AA9AA89A77
S1131270A9980895AA9AA898A99A0895AA9AA89AA2
S1131280A99A0895AA98A898A9980895CF93DF9346
S1131290EC01AA98A29AA09AA19A40E060E00E9468
S11312A02A0981E08A83DF91CF9108959C5FFC0134
S11312B080819181009729F08115944021F081E08B
S11312C0089580E0089582E00895FC01FC5F208188
S11312D031813296408151812417350750F4329779
S11312E0A9014F5F5F4F40835183FC01E20FF31F5D
S11312F060830895FB01A0E0B1E14C9150E060E00F
S113130070E0762F652F542F442711962C91119756
S1131310422B762F652F542F442712962C91422B63
S1131320009731F0DC014D935D936D937C9313979B
S1131330309709F441C0A0E0B1E150968C915097E8
S1131340808351968C915197818352968C915297B8
S1131350828353968C915397838354968C9154979C
S1131360848355968C915597858356968C91569780
S1131370868357968C915797878358968C91589764
S1131380808759968C91599781875A968C915A9750
S113139082875B968C915B9783875C968C915C9734
S11313A084875D968C915D9785875E968C915E9718
S11313B086875F968C9187870895AF92BF92CF926C
S11313C0DF92EF92FF920F931F93CF93DF935A0113
S11313D08901C4EFD8E7188219821A821B820E94FD
S11313E0110E20E034E244EF5AE40E94C80E20E0DB
S11313F030E04AE754E40E94700D20E030E040E819
S113140057E30E94C80E0E94E20D6B017C016C83BD
S11314107D838E839F830E94110E20E030E04AE793
S113142054E40E94C80E20E030E040E857E40E94F3
S1131430C80E20E034E244EF5AE40E94700D68873D
S113144079878A879B8781E0C81AD108E108F10867
S1131450CC86DD86EE86FF86A88AB98A0A8B1B8B2A
S113146081E08C8BDF91CF911F910F91FF90EF90D2
S1131470DF90CF90BF90AF900895CF92DF92EF921C
S1131480FF920E94110E2091FC783091FD784091DA
S1131490FE785091FF780E94700D6B017C0120E072
S11314A030E040E85FE30E946B0D882344F40F2E84
S11314B0C12CD12CF0E8EF2EFFE3FF2EF02DC70155
S11314C0B6010E94E20DFF90EF90DF90CF90089557
S11314D00F931F938091F4789091F578A091F6780A
S11314E0B091F778DC019927882760910A0B7091F5
S11314F00B0BAB0160E070E08A019B01082B192BF8
S11315002A2B3B2BC901B8011F910F9108950F930A
S11315101F93CF93DF93809108798823B9F1E4EF87
S1131520F8E780819181A281B3810196A11DB11D4B
S113153080839183A283B38384859585A685B785AB
S1131540892B8A2B8B2BA9F484819581A681B78161
S113155084879587A687B787C089D189209749F062
S113156000910679109107790E94680AA801FE018A
S11315700995E4EFF8E784859585A685B7850197F5
S1131580A109B10984879587A687B787DF91CF9191
S11315901F910F9108950E94D20B08951F920F92EC
S11315A00FB60F9211242F933F934F935F936F9332
S11315B07F938F939F93AF93BF93EF93FF930E9477
S11315C0870AE0E0FBE081E0868382E08683FF9186
S11315D0EF91BF91AF919F918F917F916F915F91A7
S11315E04F913F912F910F900FBE0F901F90189520
S11315F01F920F920FB60F9211242F933F934F9384
S11316005F936F937F938F939F93AF93BF93EF9366
S1131610FF930E949C078FE387BBFF91EF91BF91DB
S1131620AF919F918F917F916F915F914F913F9176
S11316302F910F900FBE0F901F9018950E94CB0A08
S11316400E946704FFCFE0E0F6E082E0818381EA54
S1131650838381E084878FEF858381E8808380E0C2
S11316600895E0E0F6E090819F7D9083808781E09B
S113167082870895809110069091110608958093B1
S11316808A7990938B7908951F920F920FB60F92D7
S113169011242F933F934F935F936F937F938F9373
S11316A09F93AF93BF93EF93FF93E0E0F6E08585BC
S11316B081608587E0918A79F0918B79309709F080
S11316C00995FF91EF91BF91AF919F918F917F9178
S11316D06F915F914F913F912F910F900FBE0F909B
S11316E01F9018951092890080E0089544E968EDF0
S11316F088E690E00E94170C80E0089541E068EDD0
S113170080E191E00E94170CE0E1F1E081E0828346
S113171082E08383789480E00895E0E1F4E08081BE
S113172088608193E83184E0F807C9F7E0E5F4E0E4
S1131730808188608193E83584E0F807C9F7E0E7A1
S1131740F4E0808188608193E83784E0F807C9F782
S1131750E0EBF4E0808188608193E83B84E0F80763
S1131760C9F708950198E1E1F4E08081877F8083DF
S11317700898009A0E94DD0C0895E3E7F4E0808164
S1131780887F846080838081877F8083E4E7F4E0BE
S11317908081887F846080838081877F80830E94AA
S11317A0230B08950E948D0B6D98659A6E98669A26
S11317B0A898A09AA998A19AAA98A29AAB98A39833
S11317C0E3EBF4E080818860808380818F7780837D
S11317D08081887F83608083AC98A498E4EBF4E0F4
S11317E080818860808380818F7780838081887FF7
S11317F081608083AD98A598E5EBF4E080818860F2
S1131800808380818F7780838081887F81608083DB
S11318100E94760B0E94B20B0E941B0C0E947E0B4E
S11318200E94BD0B0E941D0C0E94720B0895FC01C6
S113183064BF4083089580E00895E0E0FBE080E425
S1131840818382E0858381E4808380E008959091A0
S11318500008E091917AEF5FEF708091907AE81739
S113186059F0E093917AF0E0EE56F5489083809138
S11318708F7A8F5F80938F7A089580918C798823F3
S113188081F0E0918D79EF5FE0938D79F0E0E1579D
S1131890F64880818093020880918C7981508093EE
S11318A08C7980918C79811105C0E0E0F8E0858124
S11318B08F7D85830895613019F0623031F0089589
S11318C080930B7990930C79089580930979909380
S11318D00A7908951F920F920FB60F9211242F9335
S11318E03F934F935F936F937F938F939F93AF93A4
S11318F0BF93EF93FF93E0910B79F0910C793097BC
S113190009F00995FF91EF91BF91AF919F918F914C
S11319107F916F915F914F913F912F910F900FBEE7
S11319200F901F9018951F920F920FB60F921124CB
S11319302F933F934F935F936F937F938F939F93D3
S1131940AF93BF93EF93FF93E0910979F0910A79F4
S1131950309709F00995FF91EF91BF91AF919F9155
S11319608F917F916F915F914F913F912F910F9044
S11319700FBE0F901F90189590918E799F5F2091C4
S11319808C79E92FF0E0E157F648808390938E79C3
S11319900FB6F8940F9280918C798F5F80938C7935
S11319A00F900FBEE0E0F8E08581806285830895A2
S11319B00E94BC0C80E090E00895E0E0F8E085E04F
S11319C09DE08087918780E8858380EC86831092F0
S11319D0907A1092917A10928F7A10928D79109257
S11319E08E7910928C798DE099E78093A47A909304
S11319F0A57A80E008958091000808955058BB2787
S1131A00AA270E94160D0C94890E0E947B0E38F0B2
S1131A100E94820E20F039F49F3F19F426F40C94AE
S1131A20780E0EF4E095E7FB0C94720EE92F0E94F9
S1131A309A0E58F3BA17620773078407950720F0C4
S1131A4079F4A6F50C94BC0E0EF4E0950B2EBA2F87
S1131A50A02D0B01B90190010C01CA01A0011124B0
S1131A60FF27591B99F0593F50F4503E68F11A165C
S1131A70F040A22F232F342F4427585FF3CF4695ED
S1131A8037952795A795F0405395C9F77EF41F160F
S1131A90BA0B620B730B840BBAF09150A1F0FF0FD9
S1131AA0BB1F661F771F881FC2F70EC0BA0F621FC5
S1131AB0731F841F48F4879577956795B795F795B5
S1131AC09E3F08F0B0CF9395880F08F09927EE0F4A
S1131AD09795879508950E944E0E08F481E0089525
S1131AE00E94840D0C94890E0E94820E58F00E946C
S1131AF07B0E40F029F45F3F29F00C94720E5111D3
S1131B000C94BD0E0C94780E0E949A0E68F39923DF
S1131B10B1F3552391F3951B550BBB27AA276217E5
S1131B207307840738F09F5F5F4F220F331F441FF2
S1131B30AA1FA9F335D00E2E3AF0E0E832D0915026
S1131B405040E695001CCAF72BD0FE2F29D0660F13
S1131B50771F881FBB1F261737074807AB07B0E856
S1131B6009F0BB0B802DBF01FF2793585F4F3AF05C
S1131B709E3F510578F00C94720E0C94BD0E5F3F9D
S1131B80E4F3983ED4F3869577956795B795F795E2
S1131B909F5FC9F7880F911D9695879597F90895CA
S1131BA0E1E0660F771F881FBB1F62177307840766
S1131BB0BA0720F0621B730B840BBA0BEE1F88F775
S1131BC0E09508950E94A20E88F09F5798F0B92FCF
S1131BD09927B751B0F0E1F0660F771F881F991F5E
S1131BE01AF0BA95C9F714C0B13091F00E94BC0E36
S1131BF0B1E008950C94BC0E672F782F8827B85F46
S1131C0039F0B93FCCF3869577956795B395D9F7B5
S1131C103EF490958095709561957F4F8F4F9F4FBF
S1131C200895E89409C097FB3EF4909580957095CB
S1131C3061957F4F8F4F9F4F9923A9F0F92F96E914
S1131C40BB279395F695879577956795B795F11189
S1131C50F8CFFAF4BB0F11F460FF1BC06F5F7F4F26
S1131C608F4F9F4F16C0882311F096E911C0772338
S1131C7021F09EE8872F762F05C0662371F096E841
S1131C80862F70E060E02AF09A95660F771F881F10
S1131C90DAF7880F9695879597F90895990F0008B4
S1131CA0550FAA0BE0E8FEEF16161706E807F9072A
S1131CB0C0F012161306E407F50798F0621B730BC5
S1131CC0840B950B39F40A2661F0232B242B252B46
S1131CD021F408950A2609F4A140A6958FEF811DE9
S1131CE0811D089597F99F6780E870E060E008958A
S1131CF09FEF80EC089500240A9416161706180620
S1131D000906089500240A941216130614060506FB
S1131D100895092E0394000C11F4882352F0BB0F8C
S1131D2040F4BF2B11F460FF04C06F5F7F4F8F4FEF
S1131D309F4F089557FD9058440F551F59F05F3F2A
S1131D4071F04795880F97FB991F61F09F3F79F0D9
S1131D5087950895121613061406551FF2CF46955B
S1131D60F1DF08C0161617061806991FF1CF8695DD
S1131D707105610508940895E894BB2766277727C1
S1131D80CB0197F908950E944E0E08F48FEF089541
S1131D900E94DB0E0C94890E0E947B0E38F00E9488
S1131DA0820E20F0952311F00C94720E0C94780E90
S1131DB011240C94BD0E0E949A0E70F3959FC1F3EA
S1131DC0950F50E0551F629FF001729FBB27F00DE5
S1131DD0B11D639FAA27F00DB11DAA1F649F66273A
S1131DE0B00DA11D661F829F2227B00DA11D621F89
S1131DF0739FB00DA11D621F839FA00D611D221F43
S1131E00749F3327A00D611D231F849F600D211D26
S1131E10822F762F6A2F11249F5750409AF0F1F0A9
S1131E2088234AF0EE0FFF1FBB1F661F771F881F12
S1131E3091505040A9F79E3F510580F00C94720ECA
S1131E400C94BD0E5F3FE4F3983ED4F386957795EA
S1131E506795B795F795E7959F5FC1F7FE2B880FB8
S1131E60911D9695879597F90895EE0FFF1F05909C
S1131E70F491E02D0994A29FB001B39FC001A39FE8
S1131E80700D811D1124911DB29F700D811D1124AF
S10B1E90911D0895F894FFCFA1
S1131E98057005700000000000000000000000004C
S1131EA8803FCDCCCC3D0000000042010000000082
S1131EB8000000005C8F1A41CDCCCC3D000000002E
S1131EC8030200000000000000000000003F0AD7E1
S1131ED8233C000000000401000000000000000092
S1131EE800000000000000000000000000000000E6
S1131EF800000000000000000000000000000000D6
S1131F0800000000000000000000000000000000C5
S1131F1800000000000000000000000000000000B5
S11327680000000501030000000000000000030150
S11327780300000000000000000401030000000042
S113278800000000000000000A0000000000000033
S11327980000000000000000003D0C270C000000B1
S10F27A80200000000D80C00000000003B
S9030000FC
