S01400007270695F6861745F706D6F6E2E7372656310
S11300000C9468000C9485000C9485000C94850075
S11300100C9485000C9485000C9485000C94850048
S11300200C9485000C9485000C9485000C94850038
S11300300C9495110C9485000C9485000C94850007
S11300400C941C190C9485000C9485000C94421B90
S11300500C94791B0C9485000C9485000C948500F9
S11300600C9465120C9485000C9485000C94850006
S11300700C9485000C94CC110C9485000C94850090
S11300800C9485000C9485000C9485000C948500D8
S11300900C9485000C9485000C9485000C948500C8
S11300A00C9485000C9485000C9485000C948500B8
S11300B092079C07A607B007BA07C107D807F50738
S11300C0910AB709B709B709E409F309270A5B0AD2
S11300D011241FBECFEFCDBFDFE7DEBF10E7A0E0E6
S11300E0B0E7EEEEFDE302C005900D92AA3FB10722
S11300F0D9F721E7AAEFB0E701C01D92A43CB207EB
S1130100E1F70E94FE110C94F51E0C940000CF92AE
S1130110DF92EF92FF920F931F93CF93DF93CDB7AC
S1130120DEB76697CDBFDEBF209144703091457035
S113013080914670482F50E066E1649FC001659F3E
S1130140900D1124820F931F8D839E8319821A822E
S11301501B821C820E944612CC01A0E0B0E0BC01CC
S1130160CD010E94601DDC01CB018F839887A98794
S1130170BA878D819E81FC018081882F90E0009751
S1130180E9F199230CF427C103970CF024C120E072
S113019030E44CE15EE36F81788589859A850E941D
S11301A0171EDC01CB018F839887A987BA878D81BD
S11301B09E81FC0185819681A781B0852F81388538
S11301C049855A85BC01CD010E94471CDC01CB0145
S11301D07C018D018D819E81FC0181859285A385A1
S11301E0B4859C01AD01C801B7010E94171EDC0152
S11301F0CB0189839A83AB83BC8375C080E091E192
S1130200FC01868197818B879C8780E091E1FC01CA
S1130210848195818D879E8780E096E0FC018089AA
S1130220918996958795969587958F87988B2B8539
S11302303C858F859889A901481B590BCA01CC01BB
S1130240A0E0B0E0898B9A8BAB8BBC8B8D859E85AF
S1130250CC01A0E0B0E029893A894B895C89BC01D2
S1130260CD010E94841EDC01CB01898B9A8BAB8B60
S1130270BC8B89899A89AB89BC89985FAF4FBF4F82
S1130280898B9A8BAB8BBC8B89899A89AB89BC8906
S1130290072E7CE0B695A795979587957A95D1F723
S11302A0702D898B9A8BAB8BBC8B89899A898D8BAA
S11302B09E8B8D899E89CC01A0E0B0E0BC01CD016C
S11302C00E94601DDC01CB0123E333E948E853E4D9
S11302D0BC01CD010E94461CDC01CB0189839A83B9
S11302E0AB83BC8300008D819E81FC01C180D280E0
S11302F0E380F4808D819E81FC0185859685A785A8
S1130300B0899C01AD0160E070E080E89FE30E9449
S1130310461CDC01CB019C01AD01C701B6010E9462
S1130320171EDC01CB016C017D018D819E81FC01D6
S113033085859685A785B08929813A814B815C8121
S1130340BC01CD010E94171EDC01CB019C01AD0153
S1130350C701B6010E94471CDC01CB012D813E81FF
S1130360F90181839283A383B483809146708F5F64
S11303708093467080914670833010F010924670DE
S1130380209144703091457080914670482F50E020
S113039066E1649FC001659F900D1124820F931F35
S11303A0FC0185890E9428128D819E81FC0181892E
S11303B09289892B89F08D819E81FC012189328962
S11303C08D819E81FC01438954898D819E81BA016E
S11303D0F901099501C000006696CDBFDEBFDF912B
S11303E0CF911F910F91FF90EF90DF90CF900895E0
S11303F0CF93DF93CDB7DEB787E890E00E94521227
S113040080E090E78093427090934370109246701E
S113041080EA90E023E0FC01208320914470309135
S1130420457080914670482F50E066E1649FC0019A
S1130430659F900D1124820F931FFC0185890E94F2
S1130440281280E090E0DF91CF910895CF93DF935D
S1130450CDB7DEB72697CDBFDEBF89839A836B8382
S11304607C834D835E8389819A81892B71F0898194
S11304709A812B813C81FC01218B328B89819A8169
S11304802D813E81FC01238B348B00002696CDBF49
S1130490DEBFDF91CF910895CF93DF93CDB7DEB761
S11304A080E090E7DF91CF910895CF93DF9300D060
S11304B0CDB7DEB789836A838A818823A9F088E06F
S11304C090E028E030E0F9012181622F2981422F58
S11304D050E021E030E002C0220F331F4A95E2F7DA
S11304E0262BFC01218315C088E090E028E030E051
S11304F0F9012181622F2981422F50E021E030E06F
S113050002C0220F331F4A95E2F720952623FC01EF
S1130510218300000F900F90DF91CF910895CF9326
S1130520DF931F92CDB7DEB7898388E090E0FC01AA
S11305308281282F30E08981482F50E081E090E0CB
S113054002C0880F991F4A95E2F78223932321E082
S1130550892B09F420E0822F0F90DF91CF91089529
S1130560CF93DF931F92CDB7DEB78983698180E093
S11305700E94550200000F90DF91CF910895CF9310
S1130580DF93CDB7DEB780E00E948F02DF91CF9179
S113059008950F931F93CF93DF93CDB7DEB72A97B8
S11305A0CDBFDEBF89839A834B835C836D837E8357
S11305B02F83388709871A8789819A812F81388503
S11305C0FC012187328789819A8129853A85FC013A
S11305D02387348789819A81FC01108689819A81D5
S11305E0FC01148215821682178229813A818B813B
S11305F09C81AD81BE81F90180839183A283B38301
S113060000002A96CDBFDEBFDF91CF911F910F91DD
S11306100895CF93DF9300D0CDB7DEB789839A8353
S113062089819A81FC0184819581A681B781019693
S1130630A11DB11D29813A81F90184839583A68383
S1130640B78389819A81FC01248135814681578150
S113065089819A81FC0180819181A281B3812817CB
S113066039074A075B0760F089819A81FC0114828B
S113067015821682178289819A8121E0FC012087E4
S113068000000F900F90DF91CF910895CF93DF93E7
S113069000D0CDB7DEB789839A8389819A81FC0122
S11306A080858823B9F089819A81FC01108689812B
S11306B09A81FC0181859285892B61F089819A81D7
S11306C0FC012185328589819A81FC018385948589
S11306D0F901099500000F900F90DF91CF910895D3
S11306E0AF92BF92CF92DF92EF92FF920F931F933C
S11306F0CF93DF93CDB7DEB72D97CDBFDEBF8D830C
S11307006E837F83288739874A875B870C871D8799
S11307108C859D8589839A838D81882F90E08B3089
S1130720910519F00D9761F085C089819A8126E1C0
S113073030E040E050E0BC018BE00E945E087AC0EB
S11307408E819F818B839C838B819C81FC01818121
S11307508F3F21F18B819C81FC018181882F90E066
S1130760880F991F9C01220F331F220F331F820F02
S1130770931F092E000CAA0BBB0B29813A81F901A6
S11307807B96A12CB12C6501E12CF12C8701E3941B
S11307909C01AD0160E0CF010E94CE0D8B819C8154
S11307A0FC0182818F3F21F18B819C81FC0182813C
S11307B0882F90E0880F991F9C01220F331F220F6E
S11307C0331F820F931F092E000CAA0BBB0B298128
S11307D03A81F9017B96A12CB12C6501E12CF12C15
S11307E08701E3949C01AD0160E0CF010E94CE0D2E
S11307F08B819C81FC01808121E0813009F020E023
S113080089819A81815A9F4FFC01208389819A8131
S1130810815A9F4FFC018081882F90E021E0892B31
S113082009F420E081E08227882F90E081700E9403
S1130830B002000000002D96CDBFDEBFDF91CF9146
S11308401F910F91FF90EF90DF90CF90BF90AF90EA
S113085008950F93CF93DF93CDB7DEB72997CDBF1C
S1130860DEBF8C839D836E834F8328873987888579
S1130870998589839A838E81882F90E021E0892B42
S113088009F420E081E08227882F90E08B838B811C
S113089081708B832B8189819A818F589F4FFC01B2
S11308A020838B81882319F081E00E94B002898122
S11308B09A818F589F4FFC018081882F90E0A0E09F
S11308C0B0E029813A81F901F89600E09C01AD017C
S11308D064E0CF010E94830900002996CDBFDEBFEA
S11308E0DF91CF910F910895CF93DF9300D000D083
S11308F0CDB7DEB78B839C838B819C8189839A835C
S113090089819A81805A9F4F22E130E040E050E093
S1130910BC018CE00E945E0800002496CDBFDEBFBF
S1130920DF91CF910895CF93DF93CDB7DEB72897AA
S1130930CDBFDEBF6B837C838D839E834F835887BB
S11309408F81988589839A8389819A814B960E94A5
S1130950430E89819A818E589F4F0E94090300009B
S11309602896CDBFDEBFDF91CF910895CF93DF935B
S1130970CDB7DEB72897CDBFDEBF8D839E836F834F
S113098078878D819E8189839A838F8198858B83D3
S11309909C8389819A81FC0181819281A381B481A4
S11309A02B813C81205A3F4FF90180839183A2839C
S11309B0B38300002896CDBFDEBFDF91CF910895A9
S11309C00F93CF93DF93CDB7DEB72897CDBFDEBFAC
S11309D08D839E836F8378878D819E8189839A839B
S11309E08F8198858B839C8389819A81FC01818185
S11309F09281A381B4812B813C812C593F4FF90111
S1130A0080839183A283B3838B819C818C599F4F74
S1130A10FC0180819181A281B3812B813C81285981
S1130A203F4FF9012081318142815381BC01CD01C5
S1130A300E94171EDC01CB012B813C8124593F4FBE
S1130A40F90180839183A283B3838B819C818C5928
S1130A509F4FFC0180819181A281B381BC01CD01B2
S1130A600E942A1D9B01AC018B819C81C89600E0E9
S1130A7066E00E9483098B819C8184599F4FFC010D
S1130A8080819181A281B381BC01CD010E942A1D84
S1130A909B01AC018B819C81C89600E067E00E94B9
S1130AA083098B819C818C599F4FFC0180819181AA
S1130AB0A281B38120E030E844E555E4BC01CD01D6
S1130AC00E94B31C00002896CDBFDEBFDF91CF91FA
S1130AD00F9108950F93CF93DF93CDB7DEB7289787
S1130AE0CDBFDEBF8D839E836F8378878D819E818A
S1130AF089839A838F8198858B839C8389819A814A
S1130B00FC0181819281A381B4812B813C8128598C
S1130B103F4FF90180839183A283B3838B819C81AE
S1130B208C599F4FFC0180819181A281B3812B81DB
S1130B303C8128593F4FF901208131814281538101
S1130B40BC01CD010E94171EDC01CB012B813C812D
S1130B5024593F4FF90180839183A283B3838B810E
S1130B609C8188599F4FFC0180819181A281B3812E
S1130B70BC01CD010E942A1D9B01AC018B819C818B
S1130B80C89600E065E00E9483098B819C818459AA
S1130B909F4FFC0180819181A281B381BC01CD0171
S1130BA00E942A1D9B01AC018B819C81C89600E0A8
S1130BB067E00E9483098B819C8188599F4FFC01C7
S1130BC080819181A281B38120E030E04AEF53E437
S1130BD0BC01CD010E94121E18160CF03AC08B8184
S1130BE09C8180599F4FFC0110828B819C818F587E
S1130BF09F4F21E0FC01208381E00E94B0028B81A1
S1130C009C8180599F4FFC018081882F90E0A0E057
S1130C10B0E02B813C81F901F89600E09C01AD0124
S1130C2061E0CF010E9483098B819C818F589F4F83
S1130C30FC018081882F90E0A0E0B0E02B813C8112
S1130C40F901F89600E09C01AD0164E0CF010E9437
S1130C50830900002896CDBFDEBFDF91CF910F91AD
S1130C600895CF93DF9300D01F92CDB7DEB7898369
S1130C706A837B8300002396CDBFDEBFDF91CF91D3
S1130C8008950F93CF93DF93CDB7DEB72697CDBFEB
S1130C90DEBF8B836C834D835E838D819E818983CC
S1130CA09A838B81882F90E08230910579F183308B
S1130CB09105C9F1019709F044C081E09C81992311
S1130CC009F080E00E94B0028C818093B7708C811F
S1130CD08823B1F589819A818F589F4FFC01108236
S1130CE089819A818F589F4FFC018081882F90E0E1
S1130CF0A0E0B0E029813A81F901F89600E09C0176
S1130D00AD0164E0CF010E9483091AC021E08C8107
S1130D10882309F420E089819A814B96422F60E070
S1130D200E949A0D0EC021E08C81882309F420E0F2
S1130D3089819A814B96422F61E00E949A0D01C0ED
S1130D40000000002696CDBFDEBFDF91CF910F914A
S1130D5008950F931F93CF93DF9300D0CDB7DEB7E1
S1130D606DE470E789E490E70E94E70E61E082E6B3
S1130D7090E70E94720D67E470E780E793E00E94B9
S1130D80390820E030E0A90160E070E080E00E94D2
S1130D905E0827E430E743E954E06AE070E080E06D
S1130DA090E00E94EC0F47E450E769E274E080E0D1
S1130DB00E945D090E94F8010E944C0289839A8373
S1130DC089819A8147E450E766EB74E00E94260229
S1130DD089819A81469647E450E760EE74E00E9468
S1130DE0260289819A818C9647E450E76AE675E089
S1130DF00E9426026AEF70E080E090E00E94941066
S1130E00DC01CB0107E410E724E734E0AC01BD01C9
S1130E1089EB90E70E94C90227E430E741E356E0FA
S1130E2065E28FE790E70E949C0A41E456E061E0A6
S1130E308FE790E70E94630B41E456E062E08FE79E
S1130E4090E70E94630B41E456E063E08FE790E78C
S1130E500E94630B81E00E94B0020E94BF02982F9F
S1130E6081E089278093B7708091B770882F90E0D4
S1130E70A0E0B0E000E09C01AD0161E08FE790E705
S1130E800E9483091092B8700E944E0700000F90D0
S1130E900F90DF91CF911F910F910895CF93DF931E
S1130EA0CDB7DEB789EB90E70E944603A895FACF49
S1130EB0CF93DF93CDB7DEB780910271882F90E096
S1130EC0892B09F009C020E030E0A90160E070E05E
S1130ED080E00E945E0800000000DF91CF91089539
S1130EE0FF920F931F93CF93DF931F92CDB7DEB77B
S1130EF00E94181C898380912671882F90E0092E06
S1130F00000CAA0BBB0B40E050E027E030E0841B50
S1130F10950B2817390708F494C0885A9F4FFC0191
S1130F200C94B31E89818E3D21F481E08093267157
S1130F308BC01092267188C089818D3A21F482E099
S1130F408093267181C0109226717EC089818E3B68
S1130F5021F483E08093267177C01092267174C0C7
S1130F6089818F3E21F484E0809326716DC01092B4
S1130F7026716AC089818093027185E0809326710D
S1130F8063C08981813218F0109226715DC0898115
S1130F90809303711092247180910371882321F44A
S1130FA087E08093267150C086E0809326714CC000
S1130FB080912471282F30E080910371882F90E074
S1130FC00197281739071CF087E0809326718091D8
S1130FD0247191E0980F90932471882F90E08C5F96
S1130FE09E482981FC0120832FC010922671909184
S1130FF025718981981739F5809102718A3018F426
S11310000E94580720C08091FA709091FB70892B40
S1131010D1F0E091FA70F091FB702091FC70309166
S1131020FD7080912471882F90E0A0E0B0E0F090F2
S1131030027189019C01AD0164E071E78F2D09956E
S113104002C0000001C0000080912671882319F4B9
S11310501092257106C0909125718981890F809322
S1131060257100000F90DF91CF911F910F91FF9098
S11310700895CF93DF9300D000D0CDB7DEB7898336
S11310809A836B837C8389819A818093FA7090938D
S1131090FB708B819C818093FC709093FD7061E068
S11310A080E797E00E941B1B81E08093277100007A
S11310B02496CDBFDEBFDF91CF910895CF93DF9308
S11310C0CDB7DEB76497CDBFDEBF8E876F87788BD1
S11310D0298B3A8B4B8B5C8B8EED9DEAAEEBBFEE8E
S11310E088879987AA87BB878E858C8789898D870E
S11310F01982CE0108968E839F831A821B821AC09E
S11311008A819B812E813F81820F931FFC01808104
S11311109981890F89838A819B812E813F81820FE6
S1131120931FFC0180810E94B01B8A819B810196E0
S11311308A839B838A819B81069714F31C821D8278
S11311401AC08C819D812F853889820F931FFC01E1
S113115080819981890F89838C819D812F8538892C
S1131160820F931FFC0180810E94B01B8C819D81A2
S113117001968C839D8329893A898C819D8182176C
S11311809307FCF289810E94B01B00006496CDBFD6
S1131190DEBFDF91CF910895CF93DF931F92CDB738
S11311A0DEB7898388E090E0FC018281282F30E05B
S11311B08981482F50E081E090E002C0880F991F98
S11311C04A95E2F78223932321E0892B09F420E056
S11311D0822F0F90DF91CF910895CF93DF93CDB7F6
S11311E0DEB781E00E94CC08DF91CF910895CF93C0
S11311F0DF93CDB7DEB72697CDBFDEBF0E94E510E3
S1131200DC01CB0189839A83AB83BC838091C87052
S1131210882309F44BC08091C7708D830E94ED0828
S11312208E8389819A81AB81BC818093CD709093A8
S1131230CE70A093CF70B093D0708091C87083307B
S113124021F49D818E819817D1F48091C8708130EA
S113125049F48E81282F30E08D81882F90E0821709
S113126093076CF08091C8708230E9F48E81282F46
S113127030E08D81882F90E028173907A4F48091FD
S1131280C9709091CA70892B71F0E091C970F09186
S1131290CA708091CB709091CC709C0140E06E81BB
S11312A086EC90E709958E818093C770000026969E
S11312B0CDBFDEBFDF91CF910895CF93DF93CDB73C
S11312C0DEB72597CDBFDEBF89836A837B834C83DA
S11312D05D838981882F90E0892B09F00DC08A8174
S11312E09B818093C9709093CA708C819D818093F7
S11312F0CB709093CC70000000002596CDBFDEBF6C
S1131300DF91CF9108950F93CF93DF93CDB7DEB7DD
S11313102A97CDBFDEBF8B839C836D832E833F834F
S1131320488759870A878D81882F90E0880F991FF5
S1131330880F991F01962B813C81820F931F89830B
S11313409A838D81882F90E0092E000CAA0BBB0B89
S113135040E050E027E030E0841B950B2817390764
S113136008F4DDC0805A9F4FFC010C94B31E21E0A9
S11313708E819F81A885B985892B8A2B8B2B09F4B3
S113138020E089819A81FC0120838A85813009F0DB
S1131390CAC089819A81FC0182819381892B09F4D5
S11313A0C2C089819A81FC01228133818B819C8115
S11313B0FC0143A154A189819A81FC018081682F99
S11313C08D81F9010995AFC021E08E819F81A885A7
S11313D0B985892B8A2B8B2B09F420E089819A818A
S11313E0FC012083A1C08E819F81A885B98525E059
S11313F030E040E050E0BC01CD010E94941EDA01CF
S1131400C9018E839F83A887B9878E819F81A88510
S1131410B985BB2324F41E821F82188619868E8107
S11314209F81A885B9858F3F9105A105B10549F034
S113143044F08FEF90E0A0E0B0E08E839F83A88714
S1131440B9872E8189819A81FC0120836DC08E81A8
S11314509F81A885B98529E130E040E050E0BC01D6
S1131460CD010E94941EDA01C9018E839F83A8874F
S1131470B9878E819F81A885B985BB2324F41E82F8
S11314801F82188619868E819F81A885B9858F3F12
S11314909105A105B10549F044F08FEF90E0A0E07B
S11314A0B0E08E839F83A887B9872E8189819A8132
S11314B0FC01208339C08E819F81A885B98528E4E9
S11314C038EE41E050E0BC01CD010E94941EDA01E7
S11314D0C9018E839F83A887B9878E819F81A88540
S11314E0B985BB2324F41E821F82188619868E8137
S11314F09F81A885B9858F3F9105A105B10549F064
S113150044F08FEF90E0A0E0B0E08E839F83A88743
S1131510B9872E8189819A81FC01208305C000004E
S113152003C0000001C0000000002A96CDBFDEBF4A
S1131530DF91CF910F910895CF93DF93CDB7DEB7AD
S11315402797CDBFDEBF89839A836B834C835D83EA
S11315502E833F8389819A81809328719093297186
S11315608B81282F2F7789819A81FC01208380E049
S113157099E029813A81F9012081220FFC01248715
S113158089819A812C813D81FC0121A332A3898127
S11315909A812E813F81FC0123A334A389819A81FE
S11315A020E1FC01218389819A81FC0112828981D5
S11315B09A81FC011382148289819A81FC0115822B
S11315C089819A8122E0FC01268389819A81FC0128
S11315D01782108689819A81FC01118689819A81FA
S11315E022E0FC01228789819A81FC0113861486FA
S11315F089819A81FC01158689819A8122E0FC0106
S1131600268789819A81FC011786108A89819A81AB
S1131610FC01118A89819A81FC01128A89819A814B
S1131620FC01138A148A89819A81FC01158A8981B3
S11316309A81FC01168A89819A81FC01178A108E8D
S113164089819A81FC01118E89819A81FC01128E13
S113165089819A81FC01138E148E89819A81FC01FF
S1131660158E89819A81FC01168E89819A81FC01EB
S1131670178E10A289819A81FC0115A289819A8111
S1131680FC0116A28BE89BE00E94FF1981EA9BE013
S11316900E94B1198FED9BE00E94D81988E49CE068
S11316A00E94261A86E59CE00E944D1A8FE79CE072
S11316B00E94741A0E94861800002796CDBFDEBFD0
S11316C0DF91CF910895CF93DF93CDB7DEB72797FE
S11316D0CDBFDEBF8B839C836D834E835F838D81FF
S11316E0882F90E0880F991F880F991F01962B81EE
S11316F03C81820F931F89839A8389819A812E81E9
S11317003F81FC012283338300002796CDBFDEBFD7
S1131710DF91CF910895CF93DF931F92CDB7DEB7BA
S11317200E94491989830E946D19809128719091B2
S1131730297121E0FC0125A300000F90DF91CF91D6
S11317400895CF93DF93CDB7DEB780912871909140
S11317502971FC0186A1883070F52091287130919F
S113176029718091287190912971FC0186A1882F9B
S113177090E0880F991F880F991F820F931F01967D
S1131780FC0180810E9454198091287190912971E3
S1131790FC0126A12F5FFC0126A380912871909162
S11317A02971FC0186A1883030F0809128719091D4
S11317B02971FC0116A20000DF91CF9108950F93C7
S11317C01F93CF93DF93CDB7DEB7809128719091AB
S11317D02971FC0185A1813099F40091287110913F
S11317E029710E9449198770F80186A30E946D1916
S11317F0809128719091297123E0FC0125A342C0B6
S11318008091287190912971FC0185A18330D1F5D3
S11318108091287190912971FC0186A1883090F5FE
S11318200E944919882F90E0A0E0B0E0209128712F
S113183030912971F90166A1E0912871F091297123
S113184001E09C01AD01CF010E94830980912871C0
S113185090912971FC0126A12F5FFC0126A38091A0
S1131860287190912971FC0186A1883049F48091F6
S1131870287190912971FC0116A20E947A1902C064
S11318800E946D190000DF91CF911F910F9108956F
S1131890CF93DF93CDB7DEB78091287190912971F2
S11318A0FC0115A20000DF91CF910895CF93DF933F
S11318B0CDB7DEB78091287190912971FC0181A187
S11318C092A1892B91F08091287190912971FC014A
S11318D021A132A18091287190912971FC0183A1E9
S11318E094A1BC0181E0F90109958091287190913E
S11318F02971FC0115A20000DF91CF910895CF93C7
S1131900DF93CDB7DEB78091287190912971FC01E6
S113191081A192A1892B91F08091287190912971D4
S1131920FC0121A132A18091287190912971FC01BF
S113193083A194A1BC0182E0F901099580912871E9
S113194090912971FC0115A20000DF91CF910895B7
S1131950CF93DF9300D0CDB7DEB789836A838A81C2
S1131960882F90E081309105E1F08230910571F18A
S1131970892B09F03BC08CE090E02CE030E0F901C9
S11319802081622F2981422F50E021E030E002C003
S1131990220F331F4A95E2F720952623FC0120836A
S11319A025C08CE090E02CE030E0F9012081622F2A
S11319B02981422F50E021E030E002C0220F331F82
S11319C04A95E2F7262BFC01208310C08981882FD9
S11319D090E080599B4F2981222F30E020593B4FC2
S11319E0F90120812860FC012083000000000F9091
S11319F00F90DF91CF910895CF93DF9300D0CDB7AF
S1131A00DEB789836A838A818823A9F08CE090E019
S1131A102CE030E0F9012181622F2981422F50E02E
S1131A2021E030E002C0220F331F4A95E2F7262B53
S1131A30FC01218315C08CE090E02CE030E0F9013A
S1131A402181622F2981422F50E021E030E002C041
S1131A50220F331F4A95E2F720952623FC012183A8
S1131A6000000F900F90DF91CF910895CF93DF93F3
S1131A701F92CDB7DEB78983698185E00E94A80CE7
S1131A8000000F90DF91CF910895CF93DF931F92C1
S1131A90CDB7DEB78983698185E00E94FC0C000024
S1131AA00F90DF91CF910895CF93DF931F92CDB71D
S1131AB0DEB78983698186E00E94A80C00000F903C
S1131AC0DF91CF910895CF93DF931F92CDB7DEB707
S1131AD08983698186E00E94FC0C00000F90DF91ED
S1131AE0CF910895CF93DF9300D01F92CDB7DEB787
S1131AF089839A836B8381E00E94360D89819A8160
S1131B0040E060E00E949A0D81E00E94540D8981BA
S1131B109A8140E061E00E949A0D89819A8121E0D6
S1131B20FC01248F80E090E02396CDBFDEBFDF91DF
S1131B30CF910895AF92BF92CF92DF92EF92FF922E
S1131B400F931F93CF93DF9300D000D0CDB7DEB7B0
S1131B5089839A836B834C838C81882F90E0A0E0E7
S1131B60B0E0E981FA81A12CB12C6501E12CF12CC2
S1131B7087019C01AD016B81CF010E94CE0D000055
S1131B802496CDBFDEBFDF91CF911F910F91FF90BF
S1131B90EF90DF90CF90BF90AF900895AF92BF9237
S1131BA0CF92DF92EF92FF920F931F93CF93DF9325
S1131BB0CDB7DEB76597CDBFDEBF8F8398876987C2
S1131BC02A873B874C875D87EE86FF86088B198BB7
S1131BD0AA8ABB8ACC8ADD8A8985882319F48F81F5
S1131BE0988503C08F8198850C9689839A832A856A
S1131BF03B854C855D858E859F85A889B989820F33
S1131C00931FA41FB51F8B839C83AD83BE838981DF
S1131C109A81FC0120853185428553858B819C8185
S1131C20AD81BE8182179307A407B50738F4898173
S1131C309A81FC01108611861286138629813A81C5
S1131C408A859B85AC85BD85F90180839183A283B8
S1131C50B38329813A818B819C81AD81BE81F90155
S1131C6084839583A683B78300006596CDBFDEBFCA
S1131C70DF91CF911F910F91FF90EF90DF90CF9064
S1131C80BF90AF900895CF93DF9300D0CDB7DEB768
S1131C9089839A8389819A81FC01808D918DA28D9B
S1131CA0B38D0196A11DB11D29813A81F901808F5F
S1131CB0918FA28FB38F89819A81FC018085918550
S1131CC0A285B3850196A11DB11D29813A81F9012F
S1131CD080879187A287B38789819A81FC012085B7
S1131CE031854285538589819A81FC01848195815E
S1131CF0A681B781281739074A075B0738F089811D
S1131D009A81FC01108611861286138689819A8134
S1131D10FC0184899589A689B7890196A11DB11D05
S1131D2029813A81F901848B958BA68BB78B8981A4
S1131D309A81FC01248935894689578989819A8148
S1131D40FC0180899189A289B389281739074A0738
S1131D505B0738F089819A81FC01148A158A168AF6
S1131D60178A89819A81FC012085318542855385B2
S1131D7089819A81FC0180819181A281B38161E092
S1131D80281739074A075B0708F060E0862F0E948E
S1131D90450D89819A81FC012489358946895789B1
S1131DA089819A81FC0184859585A685B78561E042
S1131DB0281739074A075B0708F060E0862F0E945E
S1131DC0630D00000F900F90DF91CF910895CF9392
S1131DD0DF93CDB7DEB72897CDBFDEBF8D839E835B
S1131DE06F83788719821A821B821C8280E091E1BA
S1131DF0FC018081882F90E0A0E0B0E089839A8381
S1131E00AB83BC8389819A81AB81BC81BA2FA92F12
S1131E10982F882789839A83AB83BC8380E091E1E0
S1131E20FC018181882F90E0A0E0B0E029813A8113
S1131E304B815C81822B932BA42BB52B89839A83B2
S1131E40AB83BC8389819A81AB81BC81BA2FA92FD2
S1131E50982F882789839A83AB83BC8380E091E1A0
S1131E60FC018281882F90E0A0E0B0E029813A81D2
S1131E704B815C81822B932BA42BB52B89839A8372
S1131E80AB83BC838D819E81892B59F02D813E814A
S1131E9089819A81AB81BC81F90180839183A2837A
S1131EA0B3838F819885892B09F48FC080E091E1F9
S1131EB0FC0120898F819885FC0120838F8198857E
S1131EC0019620E031E1F9012189FC0120838F8111
S1131ED09885029620E031E1F9012289FC012083F2
S1131EE08F819885039620E031E1F9012389FC0173
S1131EF020838F819885049620E031E1F9012489BB
S1131F00FC0120838F819885059620E031E1F90159
S1131F102589FC0120838F819885069620E031E194
S1131F20F9012689FC0120838F819885079620E09A
S1131F3031E1F9012789FC0120838F819885089676
S1131F4020E031E1F901208DFC0120838F81988507
S1131F50099620E031E1F901218DFC0120838F8174
S1131F6098850A9620E031E1F901228DFC01208355
S1131F708F8198850B9620E031E1F901238DFC01D6
S1131F8020838F8198850C9620E031E1F901248D1E
S1131F90FC0120838F8198850D9620E031E1F901C1
S1131FA0258DFC0120838F8198850E9620E031E1F8
S1131FB0F901268DFC0120838F8198850F9620E0FE
S1131FC031E1F901278DFC01208300002896CDBF63
S1131FD0DEBFDF91CF910895CF93DF93CDB7DEB706
S1131FE02897CDBFDEBF69837A838B839C834D831F
S1131FF05E832F8338871092D1701092D270109222
S1132000D3701092D47069817A818B819C810E94F3
S1132010601DDC01CB0120E03BE147EB5BE4BC014C
S1132020CD010E94171EDC01CB0120E030E04AE71D
S113203054E4BC01CD010E94B81CDC01CB0120E0BA
S113204030E040E857E4BC01CD010E94B81CDC013B
S1132050CB01BC01CD010E94311DDC01CB01809379
S1132060D5709093D670A093D770B093D8708091A8
S1132070D5709091D670A091D770B091D870BC01F2
S1132080CD010E94601DDC01CB0120E030E04AE775
S113209054E4BC01CD010E94171EDC01CB0120E0F9
S11320A030E040E857E4BC01CD010E94171EDC017A
S11320B0CB0120E03BE147EB5BE4BC01CD010E9496
S11320C0B81CDC01CB018093D9709093DA70A09393
S11320D0DB70B093DC708091D5709091D670A09134
S11320E0D770B091D8700197A109B1098093DD70C0
S11320F09093DE70A093DF70B093E0708D819E8129
S11321008093E1709093E2708F8198858093E3705F
S11321109093E47081E08093E57000002896CDBF31
S1132120DEBFDF91CF910895CF93DF93CDB7DEB7B4
S11321302897CDBFDEBF6D837E838F8398876D81A3
S11321407E818F8198850E94601DDC01CB0189838B
S11321509A83AB83BC838091D9709091DA70A091FB
S1132160DB70B091DC709C01AD0169817A818B8157
S11321709C810E94B81CDC01CB0189839A83AB83C8
S1132180BC8320E030E040E85FE369817A818B81A1
S11321909C810E94B31C882344F480E090E0A0E872
S11321A0BFE389839A83AB83BC8369817A818B8102
S11321B09C810E94311DDC01CB01BC01CD0128961C
S11321C0CDBFDEBFDF91CF910895CF93DF9300D0D1
S11321D000D0CDB7DEB78091D1709091D270A0912C
S11321E0D370B091D470DC019927882789839A83AE
S11321F0AB83BC838AE09BE0FC0180819181CC01AC
S1132200A0E0B0E029813A814B815C81822B932B41
S1132210A42BB52B89839A83AB83BC8389819A8150
S1132220AB81BC81BC01CD012496CDBFDEBFDF9163
S1132230CF910895EF92FF920F931F93CF93DF9363
S1132240CDB7DEB79091E57081E08927882309F046
S11322505AC08091D1709091D270A091D370B091F6
S1132260D4700196A11DB11D8093D1709093D2704A
S1132270A093D370B093D4708091DD709091DE7090
S1132280A091DF70B091E070892B8A2B8B2B39F5EC
S11322908091D5709091D670A091D770B091D8707C
S11322A08093DD709093DE70A093DF70B093E07044
S11322B08091E1709091E270892B89F00091E17036
S11322C01091E270E090E370F090E4700E94E510E9
S11322D0DC01CB01A701BC01CD01F8010995809176
S11322E0DD709091DE70A091DF70B091E070019785
S11322F0A109B1098093DD709093DE70A093DF7023
S1132300B093E07001C00000DF91CF911F910F9155
S1132310FF90EF900895CF93DF93CDB7DEB70E947F
S11323201A180000DF91CF9108951F920F92009028
S11323303F000F9211242F933F934F935F936F931A
S11323407F938F939F93AF93BF93EF93FF93CF9319
S1132350DF93CDB7DEB70E941A1180E09BE021E045
S1132360FC01268380E09BE022E0FC012683000040
S1132370DF91CF91FF91EF91BF91AF919F918F9199
S11323807F916F915F914F913F912F910F900092A8
S11323903F000F901F9018951F920F9200903F00DE
S11323A00F9211242F933F934F935F936F937F93D7
S11323B08F939F93AF93BF93EF93FF93CF93DF9349
S11323C0CDB7DEB70E94F7088BE090E023E0FC0174
S11323D020830000DF91CF91FF91EF91BF91AF91E6
S11323E09F918F917F916F915F914F913F912F9129
S11323F00F9000923F000F901F901895CF93DF939A
S1132400CDB7DEB70E948B110E94A906FFCFCF93F0
S1132410DF93CDB7DEB780E096E022E0FC012183B4
S113242080E096E021EAFC01238380E096E021E04D
S1132430FC01248780E096E02FEFFC01258380E0F7
S113244096E021E8FC01208380E0DF91CF9108959C
S1132450CF93DF931F92CDB7DEB7898380E096E0F8
S113246020E036E0F90120812F7DFC01208380E00B
S113247096E02981FC01208780E096E021E0FC01C0
S1132480228700000F90DF91CF910895CF93DF93BF
S1132490CDB7DEB780E096E0FC0180899189DF91B9
S11324A0CF910895CF93DF9300D0CDB7DEB7898362
S11324B09A8389819A8180932A7190932B71000069
S11324C00F900F90DF91CF9108951F920F9200907B
S11324D03F000F9211242F933F934F935F936F9379
S11324E07F938F939F93AF93BF93EF93FF93CF9378
S11324F0DF93CDB7DEB780E096E020E036E0F90167
S113250025852160FC01258780912A7190912B718A
S1132510892B31F080912A7190912B71FC010995DE
S11325200000DF91CF91FF91EF91BF91AF919F9107
S11325308F917F916F915F914F913F912F910F9068
S113254000923F000F901F901895CF93DF93CDB763
S1132550DEB780E890E0FC01118680E0DF91CF9146
S11325600895CF93DF9300D01F92CDB7DEB7898350
S11325709A836B8389819A814B8168ED0E94871AC3
S113258000002396CDBFDEBFDF91CF910895CF9396
S1132590DF93CDB7DEB764E288E690E00E94B11223
S11325A080E0DF91CF910895CF93DF93CDB7DEB76D
S11325B0789480E0DF91CF910895CF93DF9300D09A
S11325C000D0CDB7DEB78B836C838B81882F90E0EE
S11325D0805F9B4F89839A838C81813059F48981F0
S11325E09A81FC018081282F286089819A81FC01CD
S11325F020830DC08C81882351F489819A81FC0148
S11326008081282F277F89819A81FC012083000003
S11326102496CDBFDEBFDF91CF910895CF93DF9392
S113262000D0CDB7DEB789836A838A81882F90E092
S113263081309105E1F08230910571F1892B09F027
S11326403BC020E030E080E090E0FC018081682F16
S11326508981482F50E081E090E002C0880F991FE3
S11326604A95E2F780958623F901808325C020E00E
S113267030E080E090E0FC018081682F8981482F60
S113268050E081E090E002C0880F991F4A95E2F77C
S1132690862BF901808310C08981882F90E0805FA8
S11326A09B4F2981222F30E0205F3B4FF90120818D
S11326B02860FC012083000000000F900F90DF9140
S11326C0CF910895CF93DF9300D0CDB7DEB7898340
S11326D06A838A818823A9F020E030E080E090E0DA
S11326E0FC018181682F8981482F50E081E090E0CE
S11326F002C0880F991F4A95E2F7862BF90181835E
S113270015C020E030E080E090E0FC018181682F7A
S11327108981482F50E081E090E002C0880F991F22
S11327204A95E2F780958623F901818300000F9092
S11327300F90DF91CF910895CF93DF9300D000D015
S1132740CDB7DEB78B836C838B81882F90E0805B61
S11327509B4F89839A838C81813059F489819A8132
S1132760FC018081282F286089819A81FC012083C3
S11327700DC08C81882351F489819A81FC01808168
S1132780282F277F89819A81FC01208300002496C9
S1132790CDBFDEBFDF91CF910895CF93DF9300D0FB
S11327A000D0CDB7DEB78B836C838B81882F90E00C
S11327B0805B9B4F89839A838C81882359F089811C
S11327C09A81FC018081282F206889819A81FC01EB
S11327D020830AC089819A81FC018081282F2F7768
S11327E089819A81FC01208300002496CDBFDEBF3D
S11327F0DF91CF910895CF93DF9300D000D0CDB770
S1132800DEB78B836C838B81882F90E0805B9B4F3A
S113281089839A8389819A81FC018081982F987F8A
S11328208C81892B282F89819A81FC0120830000C7
S11328302496CDBFDEBFDF91CF910895CF93DF9370
S113284000D0CDB7DEB789836A838A81882F90E070
S113285081309105E1F08230910571F1892B09F005
S11328603BC088E090E028E030E0F9012081622F4D
S11328702981422F50E021E030E002C0220F331FB3
S11328804A95E2F720952623FC01208325C088E0A1
S113289090E028E030E0F9012081622F2981422F65
S11328A050E021E030E002C0220F331F4A95E2F7E6
S11328B0262BFC01208310C08981882F90E0805B47
S11328C09B4F2981222F30E0205B3B4FF90120816F
S11328D02860FC012083000000000F900F90DF911E
S11328E0CF910895CF93DF9300D0CDB7DEB789831E
S11328F06A838A818823A9F088E090E028E030E0A8
S1132900F9012181622F2981422F50E021E030E03A
S113291002C0220F331F4A95E2F7262BFC012183C4
S113292015C088E090E028E030E0F9012181622FB1
S11329302981422F50E021E030E002C0220F331FF2
S11329404A95E2F720952623FC01218300000F908D
S11329500F90DF91CF910895CF93DF9300D000D0F3
S1132960CDB7DEB78B836C838B81882F90E0805941
S11329709B4F89839A838C81813059F489819A8110
S1132980FC018081282F286089819A81FC012083A1
S11329900DC08C81882351F489819A81FC01808146
S11329A0282F277F89819A81FC01208300002496A7
S11329B0CDBFDEBFDF91CF910895CF93DF9300D0D9
S11329C000D0CDB7DEB78B836C838B81882F90E0EA
S11329D080599B4F89839A8389819A81FC018081E4
S11329E0982F987F8C81892B282F89819A81FC01CB
S11329F0208300002496CDBFDEBFDF91CF910895E0
S1132A00CF93DF9300D0CDB7DEB789836A838A8101
S1132A10882F90E081309105E1F08230910571F1C9
S1132A20892B09F03BC08CE090E02CE030E0F90108
S1132A302081622F2981422F50E021E030E002C042
S1132A40220F331F4A95E2F720952623FC012083A9
S1132A5025C08CE090E02CE030E0F9012081622F69
S1132A602981422F50E021E030E002C0220F331FC1
S1132A704A95E2F7262BFC01208310C08981882F18
S1132A8090E080599B4F2981222F30E020593B4F01
S1132A90F90120812860FC012083000000000F90D0
S1132AA00F90DF91CF910895CF93DF9300D0CDB7EE
S1132AB0DEB789836A838A818823A9F08CE090E059
S1132AC02CE030E0F9012181622F2981422F50E06E
S1132AD021E030E002C0220F331F4A95E2F7262B93
S1132AE0FC01218315C08CE090E02CE030E0F9017A
S1132AF02181622F2981422F50E021E030E002C081
S1132B00220F331F4A95E2F720952623FC012183E7
S1132B1000000F900F90DF91CF910895CF93DF9332
S1132B201F92CDB7DEB78983698180E00E940E13BE
S1132B3000000F90DF91CF910895CF93DF931F9200
S1132B40CDB7DEB78983698180E00E9462130000FB
S1132B500F90DF91CF910895CF93DF931F92CDB75C
S1132B60DEB78983698181E00E94DD1200000F9045
S1132B70DF91CF910895CF93DF931F92CDB7DEB746
S1132B808983698181E00E940E1300000F90DF9118
S1132B90CF910895CF93DF931F92CDB7DEB789838A
S1132BA0698180E00E941E1400000F90DF91CF9194
S1132BB00895CF93DF931F92CDB7DEB789836981E0
S1132BC080E00E94721400000F90DF91CF9108956D
S1132BD0CF93DF931F92CDB7DEB78983698181E0FC
S1132BE00E949C1300000F90DF91CF910895CF9322
S1132BF0DF931F92CDB7DEB78983698181E00E949C
S1132C001E1400000F90DF91CF910895CF93DF93AE
S1132C101F92CDB7DEB78983698181E00E94FB13DF
S1132C2000000F90DF91CF910895CF93DF931F920F
S1132C30CDB7DEB78983698181E00E94CD1300009E
S1132C400F90DF91CF910895CF93DF931F92CDB76B
S1132C50DEB78983698181E00E94721400000F90BD
S1132C60DF91CF910895CF93DF931F92CDB7DEB755
S1132C708983698182E00E949C1300000F90DF9198
S1132C80CF910895CF93DF931F92CDB7DEB7898399
S1132C90698182E00E941E1400000F90DF91CF91A1
S1132CA00895CF93DF931F92CDB7DEB789836981EF
S1132CB082E00E94FB1300000F90DF91CF910895F2
S1132CC0CF93DF931F92CDB7DEB78983698182E00A
S1132CD00E94CD1300000F90DF91CF910895CF9300
S1132CE0DF931F92CDB7DEB78983698182E00E94AA
S1132CF0721400000F90DF91CF910895CF93DF936A
S1132D001F92CDB7DEB78983698183E00E949C134B
S1132D1000000F90DF91CF910895CF93DF931F921E
S1132D20CDB7DEB78983698183E00E941E14000059
S1132D300F90DF91CF910895CF93DF931F92CDB77A
S1132D40DEB78983698183E00E94FB1300000F9042
S1132D50DF91CF910895CF93DF931F92CDB7DEB764
S1132D608983698183E00E94CD1300000F90DF9175
S1132D70CF910895CF93DF931F92CDB7DEB78983A8
S1132D80698183E00E94721400000F90DF91CF915B
S1132D900895CF93DF931F92CDB7DEB789836981FE
S1132DA083E00E94AC1400000F90DF91CF9108954E
S1132DB0CF93DF931F92CDB7DEB78983698183E018
S1132DC00E94DD1400000F90DF91CF910895CF93FE
S1132DD0DF931F92CDB7DEB78983698184E00E94B7
S1132DE0AC1400000F90DF91CF910895CF93DF933F
S1132DF01F92CDB7DEB78983698184E00E94DD1418
S1132E0000000F90DF91CF910895CF93DF931F922D
S1132E10CDB7DEB78983698185E00E940015000083
S1132E200F90DF91CF910895CF93DF931F92CDB789
S1132E30DEB78983698185E00E94541500000F90F4
S1132E40DF91CF910895CF93DF931F92CDB7DEB773
S1132E508983698186E00E94001500000F90DF914C
S1132E60CF910895CF93DF931F92CDB7DEB78983B7
S1132E70698186E00E94541500000F90DF91CF9184
S1132E800895CF93DF9300D000D0CDB7DEB7198279
S1132E9012C08981882F90E0805F9B4F2981222F67
S1132EA030E0205F3B4FF90120812860FC01208342
S1132EB089818F5F89838981883058F31A8212C08F
S1132EC08A81882F90E0805B9B4F2A81222F30E0FB
S1132ED0205B3B4FF90120812860FC0120838A811B
S1132EE08F5F8A838A81883058F31B8212C08B815A
S1132EF0882F90E080599B4F2B81222F30E020595E
S1132F003B4FF90120812860FC0120838B818F5F76
S1132F108B838B81883058F31C8212C08C81882F5C
S1132F2090E080559B4F2C81222F30E020553B4F61
S1132F30F90120812860FC0120838C818F5F8C83C0
S1132F408C81883058F300002496CDBFDEBFDF911A
S1132F50CF910895CF93DF93CDB7DEB780E00E9481
S1132F60BB1580E00E94AC1580E00E949D1581E0B5
S1132F700E948E150E94E41B0000DF91CF910895FA
S1132F80CF93DF93CDB7DEB780E00E94BA1681E01D
S1132F900E948D1680E00E947E1680E00E94AB168F
S1132FA080E00E949C1680EE95E020EE35E0F90169
S1132FB025812260FC01258380E00E946F1681E058
S1132FC00E94421680E00E94331680E00E94601640
S1132FD080E00E94511680EE95E020EE35E0F90184
S1132FE025812260FC0125830E9457180000DF918F
S1132FF0CF910895CF93DF93CDB7DEB784E00E94DD
S1133000D81680E00E94C91684E00E94F61680E07B
S11330100E94E7160E9407120000DF91CF910895E5
S1133020CF93DF93CDB7DEB70E94931A0000DF91F0
S1133030CF910895CF93DF93CDB7DEB70E944117A8
S113304081E00E94D91581E00E94CA1581E00E94A6
S1133050241680E00E94F71581E00E94E81580E0C4
S11330600E94151683E00E94061680E00E94141741
S113307081E00E94051780E00E94321781E00E94DF
S113308023170E94C7120E94AA170E948B1A0E943B
S1133090D4120E94C0170E94FA170E9410180E94AE
S11330A0A5120E94391C0000DF91CF910895CF939F
S11330B0DF93CDB7DEB780E099E021E0FC01228305
S11330C080E099E02BE4FC01248780E099E021EE84
S11330D0FC01218780E090E00E94D81980E090E014
S11330E00E94B11980E090E00E94FF1980E090E016
S11330F00E94261A80E090E00E944D1A80E090E041
S11331000E94741A0000DF91CF910895CF93DF934A
S1133110CDB7DEB780E099E020E039E0F901218500
S11331202160FC0121870000DF91CF910895CF93A6
S1133130DF93CDB7DEB780E099E0FC018385882F6B
S113314090E088709927892B19F00E94391A71C070
S113315080E099E0FC018385882F90E084709927B2
S1133160892B19F00E94601A64C080E099E0FC0188
S11331708385882F90E080749927892B81F080E0E3
S113318099E0FC018385882F90E081709927892B31
S113319031F00E94EB1981E08093E6704AC080E030
S11331A099E0FC018385882344F580E099E0FC01E3
S11331B08385882F90E082709927892BD9F080E04D
S11331C099E0FC018385882F90E080719927892BF1
S11331D021F08091E670882351F01092E6700E94ED
S11331E09D1980E099E023E0FC01228722C00E941F
S11331F087191FC00E94C4191CC080E099E0FC011B
S11332008385882F90E080749927892B91F080E042
S113321099E0FC018385882F90E081709927892BA0
S113322041F40E94121A80E099E022E0FC01228716
S11332300000DF91CF9108951F920F9200903F00FC
S11332400F9211242F933F934F935F936F937F9328
S11332508F939F93AF93BF93EF93FF93CF93DF939A
S1133260CDB7DEB70E9497180000DF91CF91FF9190
S1133270EF91BF91AF919F918F917F916F915F91EA
S11332804F913F912F910F9000923F000F901F900C
S11332901895CF93DF93CDB7DEB780E099E0FC01BA
S11332A08585DF91CF910895CF93DF931F92CDB79A
S11332B0DEB7898380E099E02981FC01258780E0DD
S11332C099E020E039E0F90122852360FC0122879E
S11332D000000F90DF91CF910895CF93DF93CDB786
S11332E0DEB780E099E023E0FC0122870000DF9153
S11332F0CF910895CF93DF93CDB7DEB780E099E007
S113330026E0FC0122870000DF91CF910895CF933E
S1133310DF93CDB7DEB780E099E020E039E0F90132
S11333202385206CFC01238780E099E022E0FC01E6
S113333022870000DF91CF910895CF93DF93CDB71B
S1133340DEB78091B6719091B771892B31F080917D
S1133350B6719091B771FC0109950000DF91CF918E
S11333600895CF93DF9300D0CDB7DEB789839A83D6
S113337089819A818093B6719093B77100000F9000
S11333800F90DF91CF910895CF93DF93CDB7DEB740
S11333908091B4719091B571892B31F08091B471A1
S11333A09091B571FC0109950000DF91CF910895CA
S11333B0CF93DF9300D0CDB7DEB789839A83898119
S11333C09A818093B4719093B57100000F900F901F
S11333D0DF91CF910895CF93DF93CDB7DEB780917E
S11333E0B8719091B971892B31F08091B871909135
S11333F0B971FC0109950000DF91CF910895CF9335
S1133400DF9300D0CDB7DEB789839A8389819A810F
S11334108093B8719093B97100000F900F90DF9171
S1133420CF910895CF93DF93CDB7DEB78091B2717A
S11334309091B371892B31F08091B2719091B371F5
S1133440FC0109950000DF91CF910895CF93DF939C
S113345000D0CDB7DEB789839A8389819A8180931E
S1133460B2719093B37100000F900F90DF91CF91E0
S11334700895CF93DF93CDB7DEB78091BC7190915F
S1133480BD71892B31F08091BC719091BD71FC01AB
S113349009950000DF91CF910895CF93DF9300D079
S11334A0CDB7DEB789839A8389819A818093BC7171
S11334B09093BD7100000F900F90DF91CF9108950C
S11334C0CF93DF93CDB7DEB78091BA719091BB7182
S11334D0892B31F08091BA719091BB71FC010995EF
S11334E00000DF91CF910895CF93DF9300D0CDB743
S11334F0DEB789839A8389819A818093BA71909384
S1133500BB7100000F900F90DF91CF910895FC01E3
S113351064BF40830895CF93DF93CDB7DEB780E0D7
S1133520DF91CF910895CF93DF93CDB7DEB780E0DD
S11335309BE020E4FC01218380E09BE022E0FC018D
S1133540258380E09BE021E4FC01208380E0DF917F
S1133550CF910895CF93DF9300D01F92CDB7DEB7FC
S113356089836A837B8389810E94B01B80E090E019
S11335702396CDBFDEBFDF91CF910895CF93DF9324
S113358000D0CDB7DEB780E098E0FC01808189836C
S113359080916C718F5F8F738A8380916D719A8132
S11335A0981781F08A8180936C718A81882F90E0CA
S11335B0845D9E482981FC01208380916E718F5F18
S11335C080936E7100000F900F90DF91CF9108955A
S11335D0CF93DF931F92CDB7DEB78091B17188236B
S11335E0C1F08091B0718F5F8F73898389818093DB
S11335F0B07180E098E02981222F30E021593E48C3
S1133600F9012081FC0122838091B1718150809362
S1133610B1718091B171882349F480E098E020E091
S113362038E0F90125812F7DFC01258300000F90EE
S1133630DF91CF910895CF93DF9300D01F92CDB740
S1133640DEB789839A836B838B81882F90E08130E6
S1133650910519F0029741F00EC089819A818093F7
S1133660F5709093F67007C089819A818093F77002
S11336709093F870000000002396CDBFDEBFDF9169
S1133680CF9108951F920F9200903F000F92112442
S11336902F933F934F935F936F937F938F939F9356
S11336A0AF93BF93EF93FF93CF93DF93CDB7DEB781
S11336B08091F5709091F670892B31F08091F570BE
S11336C09091F670FC0109950000DF91CF91FF9174
S11336D0EF91BF91AF919F918F917F916F915F9186
S11336E04F913F912F910F9000923F000F901F90A8
S11336F018951F920F9200903F000F9211242F9360
S11337003F934F935F936F937F938F939F93AF9365
S1133710BF93EF93FF93CF93DF93CDB7DEB7809141
S1133720F7709091F870892B31F08091F770909137
S1133730F870FC0109950000DF91CF91FF91EF91A2
S1133740BF91AF919F918F917F916F915F914F91B5
S11337503F912F910F9000923F000F901F9018956A
S1133760CF93DF9300D0CDB7DEB78A838091AF715A
S11337708F5F8F73898300008091B1718034E1F38E
S11337808981882F90E081599E482A81FC012083F9
S113379089818093AF710FB6F8940F928091B171C3
S11337A08F5F8093B1710F900FBE80E098E020E0AE
S11337B038E0F90125812062FC01258300000F9087
S11337C00F90DF91CF910895CF93DF931F92CDB7E0
S11337D0DEB780E098E020E137E2FC012087318702
S11337E080E098E020E8FC01258380E098E020EC6C
S11337F0FC0126831982898180936D71898180936C
S11338006C71898180936E7189818093B071898193
S11338108093AF7189818093B17187EE90E7809333
S1133820C0719093C17180E00F90DF91CF910895A2
S1133830CF93DF93CDB7DEB780E098E0FC018081C1
S1133840DF91CF910895CF93DF9300D01F92CDB72E
S1133850DEB789839A836B8389819A814B8168ED72
S11338600E94871A00002396CDBFDEBFDF91CF915F
S11338700895CF93DF93CDB7DEB768E080E091E0A1
S11338800E94231C80E0DF91CF9108955058BB27FC
S1133890AA270E945E1C0C94D81D0E94CA1D38F0F1
S11338A00E94D11D20F039F49F3F19F426F40C94A2
S11338B0C71D0EF4E095E7FB0C94C11DE92F0E948F
S11338C0E91D58F3BA17620773078407950720F0B8
S11338D079F4A6F50C940B1E0EF4E0950B2EBA2F7A
S11338E0A02D0B01B90190010C01CA01A001112402
S11338F0FF27591B99F0593F50F4503E68F11A16AE
S1133900F040A22F232F342F4427585FF3CF46953E
S113391037952795A795F0405395C9F77EF41F1660
S1133920BA0B620B730B840BBAF09150A1F0FF0F2A
S1133930BB1F661F771F881FC2F70EC0BA0F621F16
S1133940731F841F48F4879577956795B795F79506
S11339509E3F08F0B0CF9395880F08F09927EE0F9B
S11339609795879508950E949D1D08F481E0089518
S11339700E94CC1C0C94D81D0E94D11D58F00E94AA
S1133980CA1D40F029F45F3F29F00C94C11D511168
S11339900C940C1E0C94C71D0E94E91D68F3992316
S11339A0B1F3552391F3951B550BBB27AA27621737
S11339B07307840738F09F5F5F4F220F331F441F44
S11339C0AA1FA9F335D00E2E3AF0E0E832D0915078
S11339D05040E695001CCAF72BD0FE2F29D0660F65
S11339E0771F881FBB1F261737074807AB07B0E8A8
S11339F009F0BB0B802DBF01FF2793585F4F3AF0AE
S1133A009E3F510578F00C94C11D0C940C1E5F3F31
S1133A10E4F3983ED4F3869577956795B795F79533
S1133A209F5FC9F7880F911D9695879597F908951B
S1133A30E1E0660F771F881FBB1F621773078407B7
S1133A40BA0720F0621B730B840BBA0BEE1F88F7C6
S1133A50E09508950E94311D6894B1110C940C1ED8
S1133A6008950E94F11D88F09F5798F0B92F992767
S1133A70B751B0F0E1F0660F771F881F991F1AF055
S1133A80BA95C9F714C0B13091F00E940B1EB1E091
S1133A9008950C940B1E672F782F8827B85F39F090
S1133AA0B93FCCF3869577956795B395D9F73EF4EE
S1133AB090958095709561957F4F8F4F9F4F089596
S1133AC0E89409C097FB3EF49095809570956195B4
S1133AD07F4F8F4F9F4F9923A9F0F92F96E9BB276A
S1133AE09395F695879577956795B795F111F8CFE6
S1133AF0FAF4BB0F11F460FF1BC06F5F7F4F8F4F51
S1133B009F4F16C0882311F096E911C0772321F046
S1133B109EE8872F762F05C0662371F096E8862FDE
S1133B2070E060E02AF09A95660F771F881FDAF735
S1133B30880F9695879597F90895990F0008550F62
S1133B40AA0BE0E8FEEF16161706E807F907C0F01F
S1133B5012161306E407F50798F0621B730B840B27
S1133B60950B39F40A2661F0232B242B252B21F401
S1133B7008950A2609F4A140A6958FEF811D811DA1
S1133B80089597F99F6780E870E060E008959FEFDB
S1133B9080EC089500240A941616170618060906E0
S1133BA0089500240A9412161306140605060895AF
S1133BB0092E0394000C11F4882352F0BB0F40F437
S1133BC0BF2B11F460FF04C06F5F7F4F8F4F9F4F77
S1133BD0089557FD9058440F551F59F05F3F71F0F9
S1133BE04795880F97FB991F61F09F3F79F0879560
S1133BF00895121613061406551FF2CF4695F1DFE9
S1133C0008C0161617061806991FF1CF8695710578
S1133C10610508940895E894BB2766277727CB01AC
S1133C2097F908950E949D1D08F48FEF08950E944E
S1133C302A1E0C94D81D0E94CA1D38F00E94D11D62
S1133C4020F0952311F00C94C11D0C94C71D112470
S1133C500C940C1E0E94E91D70F3959FC1F3950FFF
S1133C6050E0551F629FF001729FBB27F00DB11DFC
S1133C70639FAA27F00DB11DAA1F649F6627B00D8C
S1133C80A11D661F829F2227B00DA11D621F739F75
S1133C90B00DA11D621F839FA00D611D221F749F83
S1133CA03327A00D611D231F849F600D211D822FCA
S1133CB0762F6A2F11249F5750409AF0F1F08823F1
S1133CC04AF0EE0FFF1FBB1F661F771F881F91501E
S1133CD05040A9F79E3F510580F00C94C11D0C94EF
S1133CE00C1E5F3FE4F3983ED4F386957795679571
S1133CF0B795F795E7959F5FC1F7FE2B880F911D48
S1133D009695879597F90895DB018F939F930E9469
S1133D10B91EBF91AF91A29F800D911DA39F900DDD
S1133D20B29F900D11240895052E97FB1EF4009464
S1133D300E94AB1E57FD07D00E94C41E07FC03D08F
S1133D404EF40C94AB1E50954095309521953F4F01
S1133D504F4F5F4F089590958095709561957F4F73
S1133D608F4F9F4F0895EE0FFF1F0590F491E02DA4
S1133D7009940E94E61EA59F900DB49F900DA49FE8
S1133D80800D911D11240895A1E21A2EAA1BBB1BBC
S1133D90FD010DC0AA1FBB1FEE1FFF1FA217B30713
S1133DA0E407F50720F0A21BB30BE40BF50B661F29
S1133DB0771F881F991F1A9469F7609570958095ED
S1133DC090959B01AC01BD01CF010895A29FB00164
S1133DD0B39FC001A39F700D811D1124911DB29F3B
S1113DE0700D811D1124911D0895F894FFCFDC
S1133DEE0000000000000000000000803FCDCC4C1D
S1133DFE3E00000000420100000000000000000030
S1133E0E004040CDCC4C3E000000000302000000F8
S1133E1E00000000000000003F0AD7233C00000011
S1133E2E000400700070000100000000000000009B
S1133E3E0000000000000000000000000000000070
S1133E4E0000000000000000000000000000000060
S1133E5E0000000000000000000000000000000050
S1133E6E0000000000000000000000000000000040
S1133E7E0000000000000000000000000000000030
S1133E8E0000000000000000000000000000000020
S1133E9E0000000000000000000000000000000010
S1133EAE00000000000001010300000000000000FB
S1133EBE00000000000A00000000000000000000E6
S1133ECE000000000000010000000200000000AA33
S10D3EDE1A00000000BE1AE81A00E2
S9030000FC
