S01400007270695F6861745F706D6F6E2E7372656310
S11300000C9460000C947D000C947D000C947D0095
S11300100C947D000C947D000C947D000C947D0068
S11300200C947D000C947D000C947D000C947D0058
S11300300C945D080C947D000C947D000C947D0060
S11300400C94840A0C947D000C947D000C94010B98
S11300500C942A0B0C947D000C947D000C947D0070
S11300600C94D3080C947D000C947D000C947D00BA
S11300700C947D000C9487080C947D000C947D00F6
S11300800C947D000C947D000C947D000C947D00F8
S11300900C947D000C947D000C947D000C947D00E8
S11300A00C947D000C947D000C947D000C947D00D8
S11300B014041D0426042F0438043E045104670468
S11300C011241FBECFEFCDBFDFE7DEBF10E7A0E0F6
S11300D0B0E7E2E5FCE102C005900D92AA3FB1074A
S11300E0D9F721E7AAEFB0E701C01D92A43CB207FB
S11300F0E1F70E94AD080C94270E0C9400004F9277
S11301005F926F927F928F929F92AF92BF92CF92A3
S1130110DF92EF92FF92CF93DF93E0E0F0E78481E8
S1130120C281D38196E1899FC00DD11D11240E9403
S1130130C908BC0198819923E1F0933008F08AC082
S113014080E090E00E94B20C2FE632E143E059E3F4
S11301500E94640D2D813E814F8158850E94990B28
S113016029853A854B855C850E94640D2B013C01F1
S11301702DC0E0E0F1E126813781A481B581809131
S11301801006909111069695879596958795281B4C
S1130190390B0E94F60DDC01CB01985FAF4FBF4FC6
S11301A0072E7CE0B695A795979587957A95D1F714
S11301B0702DBC0180E090E00E94B20C23E333E98F
S11301C048E853E40E94980B2B013C01CD84DE8463
S11301D0EF84F888A701960160E070E080E89FE36F
S11301E00E94980B29813A814B815C810E94640DA5
S11301F04B015C01A7019601C301B2010E94640D89
S11302009B01AC01C501B4010E94990B69837A83F7
S11302108B839C83809104708F5F833018F4809368
S1130220047002C010920470E0E0F0E78481028060
S1130230F381E02D96E1899FE00DF11D112485895C
S11302400E94C008E989FA89309721F06B897C897A
S1130250CE010995DF91CF91FF90EF90DF90CF9081
S1130260BF90AF909F908F907F906F905F904F90D2
S113027008958FE790E00E94CE08E0E0F0E785E083
S113028090E780839183148281E08093A0000280B0
S1130290F381E02D85890E94C00880E090E00895F4
S11302A0009729F0FC01618B728B438B548B08956A
S11302B085E090E70895FC0181819281A381B48156
S11302C0FB01E05AFF4F80839183A283B383089597
S11302D00895BC01605A7F4F22E130E040E050E0D5
S11302E08CE00E94A20308958F929F92AF92BF92D6
S11302F0CF92DF92EF92FF920F931F93CF93DF93EE
S11303004B01E8018B3019F08D3051F057C026E1D4
S113031030E040E050E0B8018BE00E94A2034EC000
S1130320FB0181818F3FE1F090E09C01220F331F9C
S1130330880F991F880F991F880F991F280F391F3D
S1130340032E000C440B550BA12CB12C6501E12CA0
S1130350F12C8701E39460E0CE014B960E944C0699
S1130360F40182818F3FE1F090E09C01220F331F62
S1130370880F991F880F991F880F991F280F391FFD
S1130380032E000C440B550BA12CB12C6501E12C60
S1130390F12C8701E39460E0CE014B960E944C0659
S11303A0F4018081C15ADF4F91E0813009F090E07F
S11303B09883813011F0489A01C04898DF91CF9119
S11303C01F910F91FF90EF90DF90CF90BF90AF906F
S11303D09F908F9008950F93C90121E02627FC0177
S11303E0EF58FF4F208330E040E050E000E064E04D
S11303F0C8960E9438050F910895AF92BF92CF928C
S1130400DF92EF92FF920F93CF93DF93EB01FC0106
S1130410C180D280E380F480FB01EC59FF4FC0829D
S1130420D182E282F3825B01FCE6AF0EB11CFB01D8
S1130430E859FF4FA7019601608171818281938100
S11304400E94640DF5016083718382839383E8962F
S1130450C701B6010E947C0C9B01AC0100E066E080
S1130460CE010E943805F5016081718182819381FA
S11304700E947C0C9B01AC0167E0CE010E94380510
S1130480DF91CF910F91FF90EF90DF90CF90BF90CD
S1130490AF900895AF92BF92CF92DF92EF92FF9206
S11304A00F93CF93DF93EB01FC01C180D280E380F3
S11304B0F480FB01E859FF4FC082D182E282F382CB
S11304C05B01FCE6AF0EB11CFB01EC59FF4FA70129
S11304D0960160817181828193810E94640DF5018E
S11304E06083718382839383E896C701B6010E9477
S11304F07C0C9B01AC0100E065E0CE010E94380554
S1130500F50160817181828193810E947C0C9B0141
S1130510AC0167E0CE010E943805DF91CF910F91C5
S1130520FF90EF90DF90CF90BF90AF9008959A0125
S1130530823051F0833091F08130C9F4611102C0EE
S1130540489A08954898089541E0611101C040E037
S113055060E0C9014B960E947A06089541E061115A
S113056001C040E061E0C9014B960E947A060895FB
S1130570FC0184819581A681B7810196A11DB11DDD
S113058084839583A683B78340815181628173817B
S113059084179507A607B70730F0148215821682D0
S11305A0178281E080870895CF93DF93EA01CA011F
S11305B04B960E94AC06CE018E589F4F0E94B80203
S11305C0DF91CF910895DC0118968C9118978823B8
S11305D071F018961C9218971996ED91FC911A9740
S11305E0309729F01B968D919C911C97099508953D
S11305F089EB90E70E94E302FBCF6DE470E789E4A6
S113060090E70E94090761E082E690E70E9497065E
S113061067E470E784E791E00E94900320E030E013
S1130620A90160E070E080E00E94A20327E430E7C3
S113063044ED52E06AE070E080E090E00E946C07D4
S113064047E450E76BEE71E080E00E94D4040E941E
S113065039010E945801EC0147E450E76BE571E071
S11306600E94500147E450E76DEF71E0CE014696D9
S11306700E94500147E450E76AE472E0CE018C9690
S11306800E9450016AEF70E080E090E00E94CC0785
S113069029E631E02093C2703093C37027E430E739
S11306A02093C4703093C5701092C1701092BD70C5
S11306B01092BE701092BF701092C0706093B970A7
S11306C07093BA708093BB709093BC7048E651E00D
S11306D065E28FE790E70E94F70547E952E061E0A1
S11306E08FE790E70E94430647E952E062E08FE714
S11306F090E70E94430647E952E063E08FE790E702
S11307000E9443068AB191E0892781708093B77073
S11307108AB18695817098279093B8700E94F802E8
S1130720CF93DF93CAEFD0E7888399836A837B836F
S113073061E081E094E00E94F20A81E08DA7DF91FC
S1130740CF9108954F925F926F927F92AF92BF9232
S1130750CF92DF92EF92FF921F93CF93DF93CDB7A7
S1130760DEB72697CDBFDEBF5B0129013A014EED0E
S11307705DEA6EEB7FEE49835A836B837C838D83C2
S11307804E82CE0101967C016E0197E0C90ED11C08
S113079010E0F70181917F01180F0E94530BCE14D2
S11307A0DF04B9F71414150464F475014A0C5B1CD6
S11307B0F70181917F01180F0E94530B4E145F04BF
S11307C0B9F7812F0E94530B2696CDBFDEBFDF9170
S11307D0CF911F91FF90EF90DF90CF90BF90AF909B
S11307E07F906F905F904F90089580910271811176
S11307F007C020E030E0A90160E070E00E94A2039D
S113080008950F931F93CF930E94950BC82FE091E7
S113081026718E2F90E08830910508F079C0FC0194
S1130820E85AFF4F0C94F00DCE3D21F481E0809303
S1130830267175C0109226716FC0CD3A21F482E002
S1130840809326716CC01092267166C0CE3B21F451
S113085083E08093267163C0109226715DC0CF3E01
S113086021F484E0809326715AC01092267154C0FA
S1130870EAEFF0E7C08785E084A751C0C13218F0E1
S11308801092267149C0EAEFF0E7C18712A6C111A0
S113089004C087E08093267142C086E0809326716D
S11308A03EC0EAEFF0E742A5242F30E0818590E0D6
S11308B00197281739071CF087E0809326714F5F52
S11308C040932471F901E650FF48C28721C0EAEF42
S11308D0F0E714A683A5C8131FC0809102718A3063
S11308E018F40E94F50314C0E091FA70F091FB70C3
S11308F0309791F0AAEFB0E712960D911C911397DF
S11309009A962C9130E040E050E064E071E709955C
S113091080912671811103C01092257105C0EAEF00
S1130920F0E783A5C80FC3A7CF911F910F91089536
S1130930CF930E94F7072091C870222399F1E6EC27
S1130940F0E74181CAB1C695C1706783708781871A
S11309509287233019F44C1314C022C0213041F47F
S11309602C2F30E0842F90E08217930754F018C0A6
S11309702230B1F42C2F30E0842F90E0281739076F
S11309807CF4E091C970F091CA70309749F02091DD
S1130990CB703091CC7040E06C2F86EC90E70995D9
S11309A0C093C770CF910895811106C0E6ECF0E7BB
S11309B063837483458356830895E0912871F0918D
S11309C0297115A20895A0912871B0912971919669
S11309D0ED91FC919297309731F093966D917C91C3
S11309E0949781E00995E0912871F091297115A2FD
S11309F00895A0912871B09129719196ED91FC917F
S1130A009297309731F093966D917C91949782E010
S1130A100995E0912871F091297115A208950E9419
S1130A20D909E0912871F09129719081891304C04A
S1130A3081E085A30E94E3090895E0912871F09173
S1130A40297186A1883098F494E0899FE00DF11D06
S1130A50112481810E94DC09E0912871F0912971AF
S1130A6086A18F5F883010F486A3089516A2089596
S1130A700F93CF93DF93EC01643001F118F46130EC
S1130A8040F474C06630E9F108F1673009F454C0E9
S1130A906DC091E0232B242B252B09F490E09D833A
S1130AA0013009F063C0EF81F885309709F45EC026
S1130AB0862F4BA15CA1692F099558C081E0232B97
S1130AC0242B252B09F480E08D8350C0CA01B90181
S1130AD025E030E040E050E00E94D10D55231CF4A5
S1130AE020E030E0A901DA01C9012F3F31054105B9
S1130AF0510529F024F08FEF90E0A0E0B0E08D8361
S1130B0035C0CA01B90129E130E040E050E00E945B
S1130B10D10D55231CF420E030E0A901DA01C9010C
S1130B202F3F31054105510529F024F08FEF90E066
S1130B30A0E0B0E08D831AC0CA01B9012DE730E00E
S1130B4040E050E00E94D10D55231CF420E030E039
S1130B50A901DA01C9012F3F31054105510529F0E9
S1130B6024F08FEF90E0A0E0B0E08D83DF91CF918F
S1130B700F9108950F93CF93DF93C0912871D09173
S1130B8029718DA1813061F40E94D9098EA30E943C
S1130B90E309E0912871F091297183E085A323C0D2
S1130BA0833009F58EA18830F0F40E94D909282FEA
S1130BB0809128719091297130E040E050E001E08B
S1130BC0FC0166A10E943805E0912871F091297119
S1130BD086A18F5F86A3883021F416A20E94E709BC
S1130BE002C00E94E309DF91CF910F910895FC01A7
S1130BF080932871909329716F776083660F609357
S1130C000C0941A352A323A334A311821282138299
S1130C101482158282E08683178210861186828769
S1130C2013861486158686871786108A118A128A77
S1130C30138A148A158A168A178A108E118E128EB8
S1130C40138E148E158E168E178E10A215A216A250
S1130C508FE095E00E94150A8DE195E00E94FB0962
S1130C608AEB95E00E94080A8DED94E00E94220A26
S1130C7083EE94E00E942F0A89EF94E00E94A80A70
S1130C800E94D309089524E0629F800D911D1124D0
S1130C90FC01438354830895CF92DF92EF92FF9235
S1130CA00F931F93611102C0FC0102C0FC013C962A
S1130CB067017801C20ED31EE41EF51E808591855E
S1130CC0A285B385C816D906EA06FB0620F4108669
S1130CD01186128613862083318342835383C48210
S1130CE0D582E682F7821F910F91FF90EF90DF90FB
S1130CF0CF900895AF92BF92CF92DF92EF92FF927E
S1130D000F931F93242F30E040E050E0A12CB12C2E
S1130D106501E12CF12C87010E944C061F910F9173
S1130D20FF90EF90DF90CF90BF90AF900895CF9356
S1130D30DF93EC01659A40E060E00E947A06669ACF
S1130D4040E061E0CE010E947A0681E08C8F80E071
S1130D5090E0DF91CF910895FC01808D918DA28D5B
S1130D60B38D0196A11DB11D808F918FA28FB38F7A
S1130D7080859185A285B3850196A11DB11D8087CB
S1130D809187A287B38744815581668177818417CF
S1130D909507A607B70720F01086118612861386DA
S1130DA084899589A689B7890196A11DB11D848B73
S1130DB0958BA68BB78B4089518962897389841777
S1130DC09507A607B70720F0148A158A168A178A8A
S1130DD0408551856285738580819181A281B3812B
S1130DE0481759076A077B0710F46D9A01C06D987C
S1130DF0448955896689778984859585A685B785CB
S1130E00481759076A077B0710F46E9A08956E987D
S1130E100895FB01A0E0B1E14C9150E060E070E086
S1130E20762F652F542F442711962C911197422B1E
S1130E30762F652F542F442712962C91422B00971E
S1130E4031F0DC014D935D936D937C931397309750
S1130E5009F441C0A0E0B1E150968C915097808391
S1130E6051968C915197818352968C91529782839B
S1130E7053968C915397838354968C91549784837F
S1130E8055968C915597858356968C915697868363
S1130E9057968C915797878358968C91589780874B
S1130EA059968C91599781875A968C915A97828733
S1130EB05B968C915B9783875C968C915C97848717
S1130EC05D968C915D9785875E968C915E978687FB
S1130ED05F968C9187870895AF92BF92CF92DF92ED
S1130EE0EF92FF920F931F93CF93DF935A018901DF
S1130EF0C1EDD0E7188219821A821B820E94B20CBB
S1130F0020E03BE147EB5BE40E94640D20E030E02D
S1130F104AE754E40E940A0C20E030E040E857E33A
S1130F200E94640D0E94830C6B017C016C837D83A1
S1130F308E839F830E94B20C20E030E04AE754E4A1
S1130F400E94640D20E030E040E857E40E94640D04
S1130F5020E03BE147EB5BE40E940A0C6887798759
S1130F608A879B8781E0C81AD108E108F108CC86FA
S1130F70DD86EE86FF86A88AB98A0A8B1B8B81E000
S1130F808C8BDF91CF911F910F91FF90EF90DF90A9
S1130F90CF90BF90AF900895CF92DF92EF92FF92DF
S1130FA00E94B20C2091D9703091DA704091DB70BC
S1130FB05091DC700E940A0C6B017C0120E030E04F
S1130FC040E85FE30E94050C882344F40F2EC12CF3
S1130FD0D12CF0E8EF2EFFE3FF2EF02DC701B60170
S1130FE00E94830CFF90EF90DF90CF9008950F93B1
S1130FF01F938091D1709091D270A091D370B091D1
S1131000D470DC019927882760910A0B70910B0B2F
S1131010AB0160E070E08A019B01082B192B2A2B9D
S11310203B2BC901B8011F910F9108950F931F9392
S1131030CF93DF938091E5708823B9F1E1EDF0E778
S113104080819181A281B3810196A11DB11D80830C
S11310509183A283B38384859585A685B785892BDF
S11310608A2B8B2BA9F484819581A681B7818487EF
S11310709587A687B787C089D189209749F00091C1
S1131080E3701091E4700E94F707A801FE0109952E
S1131090E1EDF0E784859585A685B7850197A109DB
S11310A0B10984879587A687B787DF91CF911F9170
S11310B00F9108950E948D0908951F920F920FB603
S11310C00F9211242F933F934F935F936F937F93CA
S11310D08F939F93AF93BF93EF93FF930E94160850
S11310E0E0E0FBE081E0868382E08683FF91EF917C
S11310F0BF91AF919F918F917F916F915F914F912C
S11311003F912F910F900FBE0F901F9018951F9233
S11311100F920FB60F9211242F933F934F935F9327
S11311206F937F938F939F93AF93BF93EF93FF93AB
S11311300E94980483E08BB9FF91EF91BF91AF9126
S11311409F918F917F916F915F914F913F912F91DB
S11311500F900FBE0F901F9018950E945A080E947E
S1131160FD02FFCFE0E0F6E082E0818381EA838341
S113117081E084878FEF858381E8808380E0089510
S1131180E0E0F6E090819F7D9083808781E0828714
S113119008958091100690911106089580932A7104
S11311A090932B7108951F920F920FB60F921124F2
S11311B02F933F934F935F936F937F938F939F935B
S11311C0AF93BF93EF93FF93E0E0F6E085858160F2
S11311D08587E0912A71F0912B71309709F0099578
S11311E0FF91EF91BF91AF919F918F917F916F91FB
S11311F05F914F913F912F910F900FBE0F901F90D1
S113120018951092890080E0089544E268ED88E61C
S113121090E00E94AD0A80E0089541E068ED80E12D
S113122091E00E94AD0AE0E1F1E081E0828382E096
S11312308383789480E00895E0E1F4E0808188601D
S11312408193E83184E0F807C9F7E0E5F4E08081B0
S113125088608193E83584E0F807C9F7E0E7F4E0B3
S1131260808188608193E83784E0F807C9F7E0EB70
S1131270F4E0808188608193E83B84E0F807C9F753
S113128008950198E1E1F4E08081877F80830898E4
S1131290009A0E94770B08954B98439AE3E5F4E093
S11312A08081877F808380818F7780838081887F1E
S11312B08083A0EEB5E015968C9115978260159603
S11312C08C9315974A98429AE2E5F4E08081877FEF
S11312D0808380818F7780838081887F8083159647
S11312E08C911597826015968C930E94B409089589
S11312F0E3E7F4E08081887F846080838081877F56
S11313008083E4E7F4E08081887F84608083808147
S1131310877F80830E94B20808950E941C09489A1E
S1131320409A499A4198E1E5F4E08081886080839D
S113133080818F7780838081887F836080836D98AC
S1131340659A6E98669A0E9405090E9441090E9456
S1131350B10A0E940D090E944C090E9478090E945A
S1131360B30A0E9401090895E0E0F9E08AE4848761
S113137081EE81871092B4711092B5711092B6719A
S11313801092B7711092B8711092B9711092B27133
S11313901092B3711092BC711092BD711092BA7117
S11313A01092BB710895E0E0F9E081858160818746
S11313B0089580910D090895E0E0F9E0858782851C
S11313C083608287089583E080930A09089586E004
S11313D080930A090895E0E0F9E08385806C8387AF
S11313E082E082870895E091B671F091B7713097E9
S11313F009F0099508958093B6719093B771089593
S1131400E091B471F091B571309709F009950895A0
S11314108093B4719093B5710895E091B871F0918F
S1131420B971309709F0099508958093B871909334
S1131430B9710895E091B271F091B371309709F0E8
S1131440099508958093B2719093B3710895E091D2
S1131450BC71F091BD71309709F00995089580939E
S1131460BC719093BD710895E091BA71F091BB7114
S1131470309709F00995089580910B0983FF03C003
S11314800E94270A089580910B0982FF03C00E94DD
S1131490340A089580910B0986FF0AC080910B09D4
S11314A080FF06C00E940D0A81E08093E6700895D3
S11314B080910B098823D4F480910B0981FF13C018
S11314C080910B0984FF04C08091E670882341F069
S11314D01092E6700E94F30983E080930A0908954C
S11314E00E94EB0908950E94000A089580910B0957
S11314F086FF09C080910B0980FD05C00E941A0A6D
S113150082E080930A0908951F920F920FB60F92FA
S113151011242F933F934F935F936F937F938F93F4
S11315209F93AF93BF93EF93FF930E943C0AFF9165
S1131530EF91BF91AF919F918F917F916F915F9147
S11315404F913F912F910F900FBE0F901F901895C0
S11315508093BA719093BB710895FC0164BF40837A
S1131560089580E00895E0E0FBE080E4818382E078
S1131570858381E4808380E0089590910008E09160
S11315807171EF5FEF7380917071E81759F0E09318
S11315907171F0E0EE58FE48908380916F718F5F17
S11315A080936F71089580912C71882389F0E09164
S11315B02D71EF5FEF73E0932D71F0E0E15DFE4874
S11315C080818093020880912C71815080932C71CA
S11315D080912C71811105C0E0E0F8E085818F7D58
S11315E085830895613019F0623031F00895809355
S11315F0E9709093EA7008958093E7709093E8708F
S113160008951F920F920FB60F9211242F933F93B8
S11316104F935F936F937F938F939F93AF93BF93F6
S1131620EF93FF93E091E970F091EA70309709F03D
S11316300995FF91EF91BF91AF919F918F917F9108
S11316406F915F914F913F912F910F900FBE0F902B
S11316501F9018951F920F920FB60F9211242F937B
S11316603F934F935F936F937F938F939F93AF9326
S1131670BF93EF93FF93E091E770F091E870309798
S113168009F00995FF91EF91BF91AF919F918F91CF
S11316907F916F915F914F913F912F910F900FBE6A
S11316A00F901F90189520912E712F5F2F7390919A
S11316B02C719034E1F3E22FF0E0E15DFE48808389
S11316C020932E710FB6F8940F9280912C718F5F36
S11316D080932C710F900FBEE0E0F8E0858180626A
S11316E0858308950E94530B80E090E00895E0E024
S11316F0F8E080E197E28087918780E8858380EC39
S11317008683109270711092717110926F711092A1
S11317102D7110922E7110922C718BEE90E78093A4
S1131720C0719093C17180E008958091000808957C
S11317305058BB27AA270E94B00B0C942A0D0E9474
S11317401C0D38F00E94230D20F039F49F3F19F44A
S113175026F40C94190D0EF4E095E7FB0C94130D8C
S1131760E92F0E943B0D58F3BA17620773078407E9
S1131770950720F079F4A6F50C945D0D0EF4E09530
S11317800B2EBA2FA02D0B01B90190010C01CA0137
S1131790A0011124FF27591B99F0593F50F4503EE2
S11317A068F11A16F040A22F232F342F4427585FD4
S11317B0F3CF469537952795A795F0405395C9F7EC
S11317C07EF41F16BA0B620B730B840BBAF09150A4
S11317D0A1F0FF0FBB1F661F771F881FC2F70EC043
S11317E0BA0F621F731F841F48F487957795679516
S11317F0B795F7959E3F08F0B0CF9395880F08F002
S11318009927EE0F9795879508950E94EF0C08F499
S113181081E008950E941E0C0C942A0D0E94230D51
S113182058F00E941C0D40F029F45F3F29F00C94FD
S1131830130D51110C945E0D0C94190D0E943B0D67
S113184068F39923B1F3552391F3951B550BBB27EB
S1131850AA2762177307840738F09F5F5F4F220F30
S1131860331F441FAA1FA9F335D00E2E3AF0E0E827
S113187032D091505040E695001CCAF72BD0FE2F71
S113188029D0660F771F881FBB1F26173707480705
S1131890AB07B0E809F0BB0B802DBF01FF279358BD
S11318A05F4F3AF09E3F510578F00C94130D0C9461
S11318B05E0D5F3FE4F3983ED4F386957795679584
S11318C0B795F7959F5FC9F7880F911D96958795F2
S11318D097F90895E1E0660F771F881FBB1F621711
S11318E073078407BA0720F0621B730B840BBA0BCF
S11318F0EE1F88F7E09508950E94830C6894B11157
S11319000C945E0D08950E94430D88F09F5798F043
S1131910B92F9927B751B0F0E1F0660F771F881FF0
S1131920991F1AF0BA95C9F714C0B13091F00E940A
S11319305D0DB1E008950C945D0D672F782F882715
S1131940B85F39F0B93FCCF3869577956795B39531
S1131950D9F73EF490958095709561957F4F8F4FA0
S11319609F4F0895E89409C097FB3EF490958095A5
S1131970709561957F4F8F4F9F4F9923A9F0F92F51
S113198096E9BB279395F695879577956795B795CF
S1131990F111F8CFFAF4BB0F11F460FF1BC06F5FB5
S11319A07F4F8F4F9F4F16C0882311F096E911C0C7
S11319B0772321F09EE8872F762F05C0662371F0E8
S11319C096E8862F70E060E02AF09A95660F771FFC
S11319D0881FDAF7880F9695879597F90895990FD8
S11319E00008550FAA0BE0E8FEEF16161706E807E5
S11319F0F907C0F012161306E407F50798F0621B06
S1131A00730B840B950B39F40A2661F0232B242BDA
S1131A10252B21F408950A2609F4A140A6958FEFF9
S1131A20811D811D089597F99F6780E870E060E04B
S1131A3008959FEF80EC089500240A941616170663
S1131A4018060906089500240A94121613061406AB
S1131A5005060895092E0394000C11F4882352F00E
S1131A60BB0F40F4BF2B11F460FF04C06F5F7F4FC6
S1131A708F4F9F4F089557FD9058440F551F59F0AD
S1131A805F3F71F04795880F97FB991F61F09F3F67
S1131A9079F087950895121613061406551FF2CF90
S1131AA04695F1DF08C0161617061806991FF1CFE0
S1131AB086957105610508940895E894BB27662707
S1131AC07727CB0197F908950E94770D0C942A0D7E
S1131AD00E941C0D38F00E94230D20F0952311F074
S1131AE00C94130D0C94190D11240C945E0D0E948A
S1131AF03B0D70F3959FC1F3950F50E0551F629F06
S1131B00F001729FBB27F00DB11D639FAA27F00D52
S1131B10B11DAA1F649F6627B00DA11D661F829F79
S1131B202227B00DA11D621F739FB00DA11D621F5E
S1131B30839FA00D611D221F749F3327A00D611D7B
S1131B40231F849F600D211D822F762F6A2F11245D
S1131B509F5750409AF0F1F088234AF0EE0FFF1F90
S1131B60BB1F661F771F881F91505040A9F79E3FE7
S1131B70510580F00C94130D0C945E0D5F3FE4F35B
S1131B80983ED4F3869577956795B795F795E7953D
S1131B909F5FC1F7FE2B880F911D9695879597F946
S1131BA00895052E97FB1EF400940E94E80D57FD3E
S1131BB007D00E94050E07FC03D04EF40C94E80DE8
S1131BC050954095309521953F4F4F4F5F4F089565
S1131BD090958095709561957F4F8F4F9F4F089595
S1131BE0EE0FFF1F0590F491E02D0994A29FB00120
S1131BF0B39FC001A39F700D811D1124911DB29F3D
S1131C00700D811D1124911D0895A1E21A2EAA1BA5
S1131C10BB1BFD010DC0AA1FBB1FEE1FFF1FA21798
S1131C20B307E407F50720F0A21BB30BE40BF50B95
S1131C30661F771F881F991F1A9469F7609570951E
S1131C40809590959B01AC01BD01CF010895F89456
S1051C50FFCFC0
S1131C520570057000000000000000000000000094
S1131C62803FCDCCCC3D00000000420100000000CA
S1131C72000000005C8F1A41CDCCCC3D0000000076
S1131C82030200000000000000000000003F0AD729
S1131C92233C0000000004010000000000000000DA
S1131CA2000000000000000000000000000000002E
S1131CB2000000000000000000000000000000001E
S1131CC2000000000000000000000000000000000E
S1131CD200000000000000000000000000000000FE
S1131CE200000000000000000000000000000000EE
S1131CF200000000000000000000000000000000DE
S1131D0200000000000000000000000000000000CD
S1131D1200000000000001010300000000000000B8
S1131D2200000000000A00000000000000000000A3
S1131D3200000000000001D30ABD0A0000000200F6
S10D1D42000000720B000000000016
S9030000FC
